:020000040800F2
:1000000020720020C1010008E53E0008E13500082B
:10001000E13E0008510A0008CD4800080000000039
:10002000000000000000000000000000F53F000894
:100030006B11000800000000213F0008F73F000896
:10004000DB010008DB010008DB010008DB01000820
:10005000DB010008DB010008DB010008DB01000810
:1000600081110008DB0100088B110008C10F000896
:10007000D10F0008DB010008E10F0008DB010008D8
:10008000F10F000801100008DB010008DB01000887
:10009000DB010008DB010008DB010008DB010008D0
:1000A000DB010008DB010008DB010008DB010008C0
:1000B000DB010008DB010008DB010008DB010008B0
:1000C000DB010008DB010008DB010008DB010008A0
:1000D000DB010008DB0100086D4800088D480008BE
:1000E0006D110008DB010008DB010008DB010008DE
:1000F000DB010008DB010008DB010008DB01000870
:10010000DB010008DB010008DB010008DB0100085F
:10011000DB010008DB010008DB010008DB0100084F
:10012000111000082110000831100008DB01000840
:10013000DB010008DB010008DB010008DB0100082F
:10014000DB010008DB010008DB010008DB0100081F
:1001500041100008DB01000851100008AD480008FC
:10016000DB010008DB010008DB010008DB010008FF
:10017000DB010008DB010008DB01000800000000D3
:10018000DB010008DB010008DB010008DB010008DF
:10019000DB010008DB010008DB010008DB010008CF
:1001A000DB010008DB010008DB010008DFF80CD0F0
:1001B00000F0F0FA004800477D6B00082072002034
:1001C0000648804706480047FEE7FEE7FEE7FEE7F1
:1001D000FEE7FEE7FEE7FEE7FEE7FEE7E940000890
:1001E000AD01000840EA01039B0703D009E008C9FC
:1001F000121F08C0042AFAD203E011F8013B00F8EC
:10020000013B521EF9D27047D2B201E000F8012B37
:10021000491EFBD270470022F6E710B513460A4686
:1002200004461946FFF7F0FF204610BD10B5002226
:1002300000E0521C835C8C5CA34201D1002BF8D1FE
:10024000D8B2E1B2401A10BD2DE9FE4F804681EAD6
:100250000300C00F0C46009021F0004123F0004540
:10026000B8EB0200A94105D24046214690461C4603
:100270000B46024623F00040104347D0270DC7F33A
:100280000A00C3F30A510290401A019040286BDA29
:10029000C3F3130040F4801B0098924620B1002362
:1002A000D2EB030A63EB0B0B01985946C0F14002F5
:1002B000504600F043F906460D4650465946019A0D
:1002C00000F05BF910EB08006141002487EA11524D
:1002D00084EAE7731A4340D0009A62B3019A012A74
:1002E0004FEA075215DC001B61EB02014FF00042A0
:1002F00002EA0752CDE90042001C41F58011324666
:100300002B4600F05BF903B0BDE8F08F4046214674
:10031000F9E7001B61EB0201001C41F58013001896
:100320005B412018A2F5001747EB030140EAD570A6
:10033000B6196D4111E06D084FEA360645EAC07501
:100340004FEA0752001B61EB0201001C41F58011CE
:1003500049084FEA30000019514132462B4603B09C
:10036000BDE8F04F00F01BB90098012240000023C7
:10037000D0EB020263EBE073009821464FEAE07491
:10038000B8EB000061EB0401E9E783F000435BE7B1
:1003900081F0004158E72DE9FE4F81EA030404F0A3
:1003A000004421F0004100944FF0000B23F0004383
:1003B00050EA01045ED052EA03045BD0C3F30A544E
:1003C000C1F30A552C44A4F2F3340194A0FB025467
:1003D000C1F3130141F48011C3F3130343F48013F9
:1003E00001FB024400FB034E840A970A44EA81544D
:1003F00047EA8357A4FB076802958D0A05FB07852A
:100400004FEA932C04FB0C542705029D4FEA065833
:1004100047EA1637B5EB08056EEB070C870E920E10
:1004200047EA811742EA8312A7FB0201B6EB0B01F0
:1004300064EB00042B0D43EA0C335E1844EB1C50B4
:10044000DA465146E7FB0201C5F313044FEA0B33CA
:1004500043EA14534FEA0432019C43EA0603A4F131
:100460000C040294009CCDE900B400F0A7F803B09E
:10047000BDE8F08F00200146F9E70EB5C10F80EA14
:10048000E0700844CA07002140F233438DE80E00B3
:100490000A460B4600F092F803B000BD70B5C1F3F8
:1004A0000A5201F000450024C1F3130140F2FF336A
:1004B00041F480119A4201DA002070BD40F23343CA
:1004C0009A42A2F2334203DC524200F046F800E0C6
:1004D00090402C43F1D0404270BD2DE9F05F0546BD
:1004E000002092469B4688460646814640241BE0F3
:1004F000284641464746224600F02FF853465A46C2
:10050000C01A914110D311461846224600F016F841
:100510002D1A67EB01084F4622460120002100F00A
:100520000DF817EB00094E41201EA4F10104DFDC99
:10053000484631462A464346BDE8F09F202A04DB60
:10054000203A00FA02F1002070479140C2F12003E6
:1005500020FA03F3194390407047202A04DB203A25
:1005600021FA02F00021704721FA02F3D040C2F1D3
:1005700020029140084319467047202A06DBCB171A
:10058000203A41FA02F043EAE07306E041FA02F34E
:10059000D040C2F12002914008431946704710B57F
:1005A000141E73F1000408DA401C41F10001921896
:1005B0005B411A4301D120F0010010BD2DE9F04D3F
:1005C00092469B4611B1B1FA81F202E0B0FA80F294
:1005D00020329046FFF7B2FF04460F4640EA0A0079
:1005E00041EA0B0153465A46084313D0114653EAD9
:1005F000010019D0C8F140025046FFF7AEFF054692
:100600000E46504659464246FFF798FF084305D02C
:10061000012004E020463946BDE8F08D0020054366
:1006200046EAE0762C4337430A986305E40AA0EBD8
:1006300008000022FD0A44EA47540A3002D500208F
:100640000146E9E7010510196941DDE9084500198E
:100650006941BDE8F04DA2E72DE9F04D81EA0304C0
:1006600004F0004B21F0004514464FF0000A23F03F
:10067000004150EA050220D054EA01021DD0C5F322
:100680000A570246C5F31303C1F31300C1F30A5618
:1006900040F4801543F48013A7EB0608101BD646E0
:1006A00008F2FD3873EB050002D308F1010801E000
:1006B00092185B41B8F1000F03DA00200146BDE853
:1006C000F08D00204FF48011064684460EE0171B83
:1006D00073EB050705D3121B63EB050306434CEAD6
:1006E000010C49084FEA300092185B4150EA0107BB
:1006F000EDD152EA030012D082EA040083EA050138
:10070000084305D0101BAB4106D20122002306E0AE
:1007100000224FF0004302E06FF0010253101AEB89
:1007200006004CEB085110EB0A0041EB0B01BDE851
:10073000F04DFFF734BF70B521F0004303430CD0F8
:10074000C1F30A550024D5EB040564EB0403D61766
:10075000AD1AB34102DB0020014670BD201841EB09
:10076000025170BD30B5041E71F1000404DB4FF07E
:100770000044404264EB0101141E73F1000405DBE8
:100780001C464FF00043524263EB0403994208BFFA
:10079000904230BD064C074D06E0E06840F0010392
:1007A00094E8070098471034AC42F6D3FFF702FDF7
:1007B0003C8B00085C8B00082DE9F04D00231A46A5
:1007C0001B1A8A4103DB00200146BDE8F08DC1F30E
:1007D0000A52C1F3130141F480154FF0000BD10709
:1007E00002D100186D41521E0027044640F2FF114D
:1007F000384601EB620A3E468046024600204FF42E
:100800008011FFF7AAFEC2197141BB1846EB010027
:10081000B4EB030C75EB000C04D3E41A65EB000594
:1008200017460E46241908F101006D418046342810
:10083000E3DDF91946EB0600091BA84103D24FF08E
:10084000FF32134601E0002213461BEB070046EB84
:100850000A51BDE8F04DFFF7A2BE70B58C1810F834
:10086000015B15F0070301D110F8013B2A1106D1F5
:1008700010F8012B03E010F8016B01F8016B5B1E0F
:10088000F9D12B0705D40023521E0DD401F8013BEA
:10089000FAE710F8013BCB1A921C03E013F8015B56
:1008A00001F8015B521EF9D5A142D8D3002070BDDA
:1008B00030B50B46002120282FDD40282DDA1C24DE
:1008C000604D2C7704255F4C84F82250002584F875
:1008D00023505D4C25895B4C25848025A4F81D5050
:1008E000A0F12104A2B2012404FA02F1554C646A79
:1008F0000C40002C10D1534C646A0C43514D6C6277
:10090000524C647804F00F054E4C283463554F4C1C
:100910006478641C4D4D6C7092E0202827DA1C240A
:10092000484D2C700424AC710024EC71464C248991
:10093000AC808024A5F80140C41EA2B2012404FAB0
:1009400002F12C46A4680C40002C79D12C46A468F6
:100950000C43AC603D4C247804F00F05394C0C344A
:1009600063553A4C2478641C384D2C7068E000F0D4
:100970007F04602C2FDD1C24324D85F85440042563
:10098000304C84F85A50002584F85B502E4C258951
:100990002C4CA4F858508025A4F85550A0F16104BF
:1009A000A2B2012404FA02F1264CE46D0C40002CA2
:1009B00046D1244CE46D0C43224DEC65234CE47885
:1009C00004F00F051F4C60346355204CE478641C20
:1009D0001E4DEC7034E000F07F04602C30DA00F043
:1009E0007F04422C2CDD1C24164D85F8384004254C
:1009F000144C84F83E50002584F83F50124C258951
:100A0000104CA5878025A4F83950A0F14304A2B268
:100A1000012404FA02F10B4C246C0C4084B9094CFB
:100A2000246C0C43074D2C64084CA47804F00F058B
:100A3000044C44346355054CA478641C034DAC70DD
:100A400030BD000082650020F26900204C010020CA
:100A500000BFFEE770B5044688223021204600F032
:100A600041FA0546C1223121204600F03BFA0546F5
:100A700016225321204600F035FA0546462224214D
:100A8000204600F02FFA054647222521204600F097
:100A900029FA05460F222621204600F023FA0546B2
:100AA000F8223621204600F01DFA05468322462111
:100AB000204600F017FA054614224721204600F090
:100AC00011FA05463F224A21204600F00BFA05465E
:100AD0005A224C21204600F005FA054603224F21F8
:100AE000204600F0FFF9054610225621204600F06E
:100AF000F9F905460E225721204600F0F3F9054684
:100B000003225821204600F0EDF9054640220C2131
:100B1000204600F0E7F9054600224421204600F077
:100B2000E1F9054627222021204600F0DBF90546A1
:100B300088222321204600F0D5F9054628222121CC
:100B4000204600F0CFF9054618220121204600F08A
:100B5000C9F9054600221146204600F0C3F90546B2
:100B6000204607F051FB00EB4000404908448078E4
:100B700000B970BD204607F047FB00EB40003B4941
:100B800008448078012811D143220C21204600F02E
:100B9000A9F9054600220D21204600F0A3F90546DB
:100BA00065225A21204600F09DF90546204607F0AF
:100BB0002BFB00EB40002D4908448078022853D1DC
:100BC00043220C21204600F08DF9054600220D211C
:100BD000204600F087F90546F8223621204600F02D
:100BE00081F9054600224421204600F07BF90546A4
:100BF00085224621204600F075F90546142247213A
:100C0000204600F06FF905463F224A21204600F0B9
:100C100069F905465A224C21204600F063F9054641
:100C20002B224F21204600F05DF905461022562167
:100C3000204600F057F905460E225721204600F0C5
:100C400051F9054603225821204600F04BF905468C
:100C500005225A21204600F045F9054608225B216D
:100C6000204600F03FF9054600BF82E738610020CA
:100C700033B583B004462A48844206D100224FF49B
:100C80000041284800F098FE1AE02748844205D128
:100C900000224021254800F08FFE11E024488442C4
:100CA00005D1002210211F4800F086FE08E02148EF
:100CB000844205D100224FF400611F4800F07CFE01
:100CC0000120034602AA04A90090204601F0B9FEC3
:100CD00005461348844205D10122D103114800F092
:100CE0006BFE19E01048844205D1012240210F48D3
:100CF00000F062FE10E00E48844205D1012210216E
:100D0000084800F059FE07E00A48844204D1012255
:100D1000D102094800F050FE9DF8080005B030BD32
:100D20005802002000000240080300200014024086
:100D300000020020B0020020001002402DE9FC411A
:100D400004460D461746102040EA25208DF8040081
:100D5000E8B28DF80500FF208DF80600294884428E
:100D600006D100224FF40041274800F025FE1AE08A
:100D70002648844205D100224021254800F01CFE6F
:100D800011E02448844205D1002210211E4800F0C1
:100D900013FE08E02048844205D100224FF4006190
:100DA0001E4800F009FE012003233A4601A90090E5
:100DB000204601F046FE06461248844205D1012233
:100DC000D103114800F0F8FD19E01048844205D124
:100DD000012240210E4800F0EFFD10E00D48844252
:100DE00005D101221021084800F0E6FD07E00A487D
:100DF000844204D10122D102084800F0DDFD3046D2
:100E0000BDE8FC81580200200000024008030020D9
:100E10000014024000020020B00200200010024036
:100E200073B504462848844206D100224FF400419D
:100E3000264800F0C1FD1AE02548844205D1002271
:100E40004021244800F0B8FD11E02348844205D138
:100E5000002210211D4800F0AFFD08E01F48844229
:100E600005D100224FF400611D4800F0A5FD0123CB
:100E70001A4601A9204601F011FD05461248844298
:100E800005D10122D103114800F096FD19E0104868
:100E9000844205D1012240210E4800F08DFD10E072
:100EA0000D48844205D101221021084800F084FD3C
:100EB00007E00A48844204D10122D102084800F028
:100EC0007BFD28467CBD0000580200200000024047
:100ED000080300200014024000020020B00200209D
:100EE00000100240F8B504460D461646202040EAA0
:100EF00025208DF80000E8B28DF801008DF8026021
:100F00002848844206D100224FF40041264800F0D0
:100F100053FD1AE02548844205D10022402124488F
:100F200000F04AFD11E02348844205D1002210213F
:100F30001D4800F041FD08E01F48844205D1002211
:100F40004FF400611D4800F037FD0123032269467C
:100F5000204601F0A3FC07461248844205D1012235
:100F6000D103114800F028FD19E01048844205D152
:100F7000012240210E4800F01FFD10E00D48844280
:100F800005D101221021084800F016FD07E00A48AB
:100F9000844204D10122D102084800F00DFD3846F8
:100FA000F8BD0000580200200000024008030020A5
:100FB0000014024000020020B00200200010024095
:100FC00010B5024800F07CF910BD0000C0030020FD
:100FD00010B5024800F074F910BD00009C06002016
:100FE00010B5024800F06CF910BD0000FC060020AE
:100FF00010B5024800F064F910BD0000DC050020C7
:1010000010B5024800F05CF910BD00003C0600205D
:1010100010B5024800F054F910BD00002004002073
:1010200010B5024800F04CF910BD00005C0700202C
:1010300010B5024800F044F910BD00006003002024
:1010400010B5024800F03CF910BD000080040020FB
:1010500010B5024800F034F910BD0000BC070020B4
:101060000146087810381823B0FBF3F20848805C7A
:10107000C865032A05D908686FF30900001D886553
:1010800003E008686FF309008865886D7047000009
:1010900084850008014600208A6A8B69CBB932B189
:1010A000012A0DD0022A03D0032A10D10EE000BF7E
:1010B000CB6A03F08073B3F1807F00D1012007E099
:1010C000CB6AB3F1C07F00D1012001E000E000BF96
:1010D00034E08B69B3F5005F1AD132B1012A07D031
:1010E000022A03D0032A11D10AE000BF01200EE03A
:1010F000CB6A03F08073B3F1807F00D1012006E05A
:10110000CB6AB3F1C07F00D1012000E000BF15E041
:1011100032B1012A05D0022A04D0032A0CD103E0FF
:1011200000BF00BF012008E0CB6A03F08073B3F179
:10113000807F00D1012000E000BF00BF704730B5C4
:101140000468246824F4802405682C6004686360C3
:101150008468402C04D10468A2600468E16003E064
:101160000468A1600468E26030BD704710B54FF4B8
:10117000806000F0F9FA4FF4805000F0F5FA10BDED
:1011800010B5042000F0F0FA10BD10B5102000F0EA
:10119000EBFA10BD10B504460CB9012010BD607902
:1011A00020B900202071204600F006F8022060716E
:1011B000012060710020F1E708B50A4A01689142F8
:1011C0000FD100BF002100910749096841F4805107
:1011D000054A11601146096801F48051009100BF71
:1011E00000BF08BD003002403038024070B50446F0
:1011F000A56D00F0E7FB064694F83500022808D0FC
:101200008020606500BF002084F8340000BF01200A
:1012100070BD2068006820F0160021680860206812
:10122000406920F0800021684861206C08B9A06CFA
:1012300028B12068006820F0080021680860206854
:10124000006820F00100216808600FE000F0BAFBA0
:10125000801B05280AD92020606500BF002084F883
:10126000340000BF032084F83500D1E7206800680F
:1012700000F001000028E9D194F85C103F2088407C
:10128000A86000BF002084F8340000BF012084F86B
:1012900035000020BCE7014691F83500022803D054
:1012A0008020486501207047052081F835000868D6
:1012B000006820F001000A6810600020F3E70000D9
:1012C000F8B50446002000908D4800684FF4165190
:1012D000B0FBF1F7A56D2E6894F85C1008208840EB
:1012E000304098B12068006800F0040070B12068B8
:1012F000006820F004002168086094F85C10082061
:101300008840A860606D40F00100606594F85C1052
:101310007C488840304068B12068406900F0800017
:1013200040B194F85C1077488840A860606D40F048
:101330000200606594F85C107248C01C8840304020
:1013400070B12068006800F0020048B194F85C10A9
:101350006C48C01C8840A860606D40F00400606567
:1013600094F85C1010208840304078B32068006802
:1013700000F0080050B394F85C1010208840A8607A
:101380002068006800F4802080B12068006800F4C4
:10139000002028B9206CC8B12046216C884715E090
:1013A000A06C98B12046A16C88470FE020680068C7
:1013B00000F4807028B92068006820F008002168D7
:1013C0000860206C10B12046216C884794F85C10AE
:1013D000202088403040002865D02068006800F058
:1013E000100000285FD094F85C1020208840A8608E
:1013F00094F83500052828D12068006820F01600F0
:10140000216808602068406920F0800021684861F8
:10141000206C08B9A06C28B12068006820F0080092
:101420002168086094F85C103F208840A86000BFE5
:10143000002084F8340000BF012084F83500206DBE
:1014400010B12046216D8847F8BD2068006800F47F
:10145000802080B12068006800F4002028B9606C0A
:1014600010B12046616C88471DE0E06BD8B1204682
:10147000E16B884717E02068006800F4807068B965
:101480002068006820F010002168086000BF00207C
:1014900084F8340000BF012084F83500E06B10B1FF
:1014A0002046E16B8847606D38B3606D00F0010045
:1014B000F0B1052084F835002068006820F00100B4
:1014C0002168086000BF0098401C0090B84200D915
:1014D00005E02068006800F001000028F3D100BF9B
:1014E00000BF002084F8340000BF012084F83500DC
:1014F000E06C10B12046E16C884700BFA4E7000013
:1015000000000020010080002DE9F0410446002584
:1015100000F058FA074614B90120BDE8F081606A6E
:1015200000B100BF00BF002084F8340000BF0220DB
:1015300084F835002068006820F001002168086008
:101540000AE000F03FFAC01B052805D9202060659D
:10155000032084F83500E0E72068006800F001000F
:101560000028EED12068056821480540D4E9010132
:101570000843E16808432169084361690843A16998
:101580000843E1690843216A08430543606A042867
:1015900003D1D4E90B0108430543206805602068A6
:1015A000456925F00705606A0543606A04280DD186
:1015B000A06A0543E06A48B12046FFF76BFD28B1F9
:1015C00040206065012084F83500A6E72068456169
:1015D0002046FFF745FD064694F85C103F20884002
:1015E000B06000206065012084F83500002094E799
:1015F0003F8010F02DE9F04704460D4616461F4681
:101600004FF00008D4F8589000BF94F83400012837
:1016100002D10220BDE8F087012084F8340000BF29
:1016200094F8350001282BD1022084F835000020E1
:1016300060653B46324629462046FFF780FD94F818
:101640005C103F208840C9F808002068006840F01E
:101650001600216808602068406940F08000216819
:101660004861206C28B12068006840F008002168BB
:1016700008602068006840F001002168086006E00A
:1016800000BF002084F8340000BF4FF0020840463D
:10169000C0E7000010B50446102C15D12D48006895
:1016A00000F01000002854D02A48006800F0200004
:1016B00000284ED000226102274800F07DF927491A
:1016C000886805F0DFFF44E0042C13D1244800694A
:1016D00000F0040028B32248006900F0080000B3BD
:1016E000002280211E4800F067F91C49C86805F0F7
:1016F000C9FF2EE0B4F5806F14D11A48006800F4D9
:10170000806070B11748006800F4006048B10022A2
:101710004FF40071104800F04FF91049086805F0C7
:10172000B1FF16E0B4F5805F13D10A48006800F4F9
:10173000805070B10748006800F4006048B1002292
:101740004FF40061044800F037F90449486805F097
:1017500099FF10BD10140240001802400C01002037
:10176000002002401004024010B5044604480068FE
:10177000204020B1024804602046FFF78BFF10BDD7
:10178000143C0140F8B502460B4600250024002019
:101790000021E6E0012606FA01F51E6806EA0504C6
:1017A000AC4273D15E68022E02D05E68122E13D155
:1017B000CF0802F1200656F827004E07F70E0F2635
:1017C000BE40B0434F07FF0E1E69BE403043CF08F6
:1017D00002F1200646F8270010684F000326BE409D
:1017E000B0431E7906F003064F00BE403043106040
:1017F0005E68012E08D05E68022E05D05E68112E4C
:1018000002D05E68122E13D190684F000326BE40AE
:10181000B0434F00DE68BE40304390605068012600
:101820008E40B0431E79C6F300168E4030435060A0
:10183000D0684F000326BE40B0434F009E68BE40B4
:101840003043D0605E6806F08056B6F1805FA8D164
:1018500000BF00260096454E366846F48046434F4A
:101860003E603E46366806F48046009600BF00BFE4
:101870003F4E8F0856F827008E07370F0F26BE40C1
:10188000B0433C4EB24202D100262EE068E03A4E10
:10189000B24201D1012628E0384EB24201D10226DF
:1018A00023E0374EB24201D103261EE0354EB2424C
:1018B00001D1042619E0344EB24201D1052614E0CC
:1018C000324EB24201D106260FE0314EB24201D172
:1018D00007260AE02F4EB24201D1082605E02E4E1F
:1018E000B24201D1092600E00A268F073F0FBE4011
:1018F00030431F4E8F0846F82700284E3068A0431B
:101900005E6806F48036B6F5803F00D12043234E52
:101910003060361D3068A0435E6806F40036B6F5C8
:10192000003F00D120431D4E361D3060361D30680B
:10193000A0435E6806F48016B6F5801F00D12043F0
:10194000164E08363060361D3068A0435E6806F4D7
:101950000016B6F5001F00D12043104E0C36306043
:10196000491C1029FFF416AFF8BD000044380240AE
:101970000838014000000240000402400008024014
:10198000000C024000100240001402400018024007
:10199000001C02400020024000240240003C0140A4
:1019A000024613690B400BB1012000E00020704794
:1019B00042694A40426170470AB1816101E00B040B
:1019C00083617047014800687047000004000020F0
:1019D00070B50446002600250CB9012070BD94F8AE
:1019E0003D0028B9002084F83C00204600F084F82F
:1019F000242084F83D002068006820F00100216860
:101A0000086000F059FA05463948B5FBF0F6206841
:101A1000466038496068884201D8701C07E04FF47E
:101A2000967070434FF47A71B0FBF1F0401C21685E
:101A300008623049606888420ED860684000B5FB93
:101A4000F0F0C0F30B00042801D204202DE0606800
:101A50004000B5FBF0F028E0A06828B9606800EB12
:101A60004000B5FBF0F008E0606800EBC00101EB5E
:101A70000010B5FBF0F040F48040C0F30B0008B953
:101A8000012012E0A06828B9606800EB4000B5FBB7
:101A9000F0F008E0606800EBC00101EB0010B5FB5E
:101AA000F0F040F4804040F400402168C861D4E97F
:101AB0000701084321680860D4E90310084321683E
:101AC0008860D4E9050108432168C860206800687F
:101AD00040F001002168086000202064202084F884
:101AE0003D000020206384F83E0000BF76E7000040
:101AF00040420F00A086010010B586B0044612498E
:101B0000206888421DD1C02001901220029001203F
:101B10000390032004900420059001A90B48FFF7CF
:101B200031FE00BF002000900948006840F400101A
:101B3000074908600846006800F40010009000BFE4
:101B400000BF06B010BD0000005400400004024079
:101B50004038024002480068401C01490860704754
:101B60000400002010B50D48006840F400700B49D7
:101B700008600846006840F4806008600846006815
:101B800040F480700860032000F094F8002000F01A
:101B900007F800F019F8002010BD0000003C0240DA
:101BA00070B50446074800684FF47A71B0FBF1F550
:101BB000284601F0C9F800222146501E00F03CF8EA
:101BC000002070BD0000002010B5032000F072F866
:101BD000002211466FF00B0000F02EF80022114693
:101BE0006FF00A0000F028F8002211466FF009009B
:101BF00000F022F800221146501F00F01DF80022CC
:101C00001146101F00F018F800221146901E00F037
:101C100013F800221146501E00F00EF810BD00BF50
:101C200000F01F02012191404209920002F1E022DE
:101C3000C2F8001100BF70472DE9F05F80460D46E5
:101C40001646002702F050F9074639462A46334621
:101C500001F00700C0F1070ABAF1040F02D94FF0F2
:101C6000040A01E0C0F1070AD14600F1040ABAF102
:101C7000070F02D24FF0000A01E0A0F1030AD44698
:101C80004FF0010A0AFA09FAAAF1010A0AEA020A5D
:101C90000AFA0CFA4FF0010B0BFA0CFBABF1010B3B
:101CA0000BEA030B4AEA0B042146404602F024F9F2
:101CB000BDE8F09F00BF00F00702064B19684FF621
:101CC000FF031940044B0B4343EA0221014B196007
:101CD00000BF70470CED00E00000FA0570B5044647
:101CE0000D4600266D48006800F00F00A84209D29A
:101CF0006A490D700846006800F00F00A84201D044
:101D0000012070BD207800F00200022807D164484D
:101D1000006820F0F000A16808436149086020785D
:101D200000F00100002877D06068012807D15C48E6
:101D300008380068C0F34040B8B90120E1E76068A6
:101D4000022802D06068032807D155480838006887
:101D5000C0F3406048B90120D3E751480838006813
:101D6000C0F3400008B90120CBE74D48006820F0DF
:101D70000300616808434A490860FFF723FE0646EE
:101D80006068012810D108E0FFF71CFE801B41F2BB
:101D90008831884201D90320B3E74148006800F048
:101DA0000C000428F0D137E06068022810D108E068
:101DB000FFF708FE801B41F28831884201D90320D9
:101DC0009FE73748006800F00C000828F0D123E0B6
:101DD0006068032810D108E0FFF7F4FD801B41F292
:101DE0008831884201D903208BE72D48006800F034
:101DF0000C000C28F0D10FE008E0FFF7E3FD801B9A
:101E000041F28831884201D903207AE724480068EA
:101E100000F00C000028F0D12048006800F00F000E
:101E2000A84209D91D490D700846006800F00F004E
:101E3000A84201D0012064E7207800F004000428C3
:101E400007D11748006820F4E050E16808431449BE
:101E50000860207800F00800082808D110480068C1
:101E600020F46040216940EAC1000D49086000F09B
:101E70004FF80B49096801F0F001F02292FAA2F242
:101E8000B2FA82F2D140074A515CC8400649086064
:101E90000020FFF785FE002033E70000003C0240F1
:101EA000083802406C8500080000002001480068E6
:101EB000704700000000002000B5FFF7F7FF07495A
:101EC000096801F4E0514FF4E05292FAA2F2B2FA3A
:101ED00082F2D140024A515CC84000BD083802403D
:101EE0007C85000800B5FFF7E1FF0749096801F4A8
:101EF00060414FF4604292FAA2F2B2FA82F2D1400B
:101F0000024A515CC84000BD083802407C85000888
:101F100070B50021002200230020274C246804F023
:101F20000C0424B1042C04D0082C41D103E0234834
:101F300040E023483EE0204C241F246804F03F0189
:101F40001D4C241F246804F4800484B11C4CB4FB91
:101F5000F1F5194C241F246847F6C076344096FAF0
:101F6000A6F6B6FA86F6F44005FB04F20FE0134C31
:101F7000B4FBF1F5104C241F246847F6C0763440BA
:101F800096FAA6F6B6FA86F6F44005FB04F20A4C79
:101F9000241F246804F440344FF4403595FAA5F525
:101FA000B5FA85F5EC40641C6300B2FBF3F001E088
:101FB000024800BF00BF70BD083802400024F40092
:101FC00000127A0038B504460025207800F00100A0
:101FD000002874D0F748006800F00C0004280DD0E9
:101FE000F448006800F00C00082813D1F148001FE5
:101FF000006800F48000B0F5800F0BD1ED48083880
:102000000068C0F34040002859D06068002856D1CD
:10201000012038BD00BF6068B0F5803F08D1E548B9
:102020000838006840F48030E249083908601EE052
:102030006068B0F5A02F0DD1DE480838006840F484
:102040008020DC49083908600846006840F4803088
:1020500008600CE0D7480838006820F48030D54983
:10206000083908600846006820F48020086000BF36
:10207000606890B1FFF7A6FC054606E0FFF7A2FCFA
:10208000401B642801D90320C3E7CA480838006808
:10209000C0F340400028F1D011E0FFF793FC054663
:1020A00006E0FFF78FFC401B642801D90320B0E74E
:1020B000C04808380068C0F340400028F1D12078BB
:1020C00000F00200022869D1BA48006800F00C0054
:1020D00058B1B848006800F00C00082821D1B54874
:1020E000001F006800F48000D8B9B24808380068C2
:1020F000C0F3400020B1E068012801D0012088E74A
:10210000AC480838006820F0F800F82292FAA2F2F1
:10211000B2FA82F2216991400843A6490839086061
:102120003CE0E06828B30120A3490860FFF74AFCBF
:10213000054606E0FFF746FC401B022801D90320B4
:1021400067E79C4808380068C0F340000028F1D0D9
:1021500098480838006820F0F800F82292FAA2F2B5
:10216000B2FA82F221699140084392490839086025
:1021700014E0002090490860FFF724FC054606E0C3
:10218000FFF720FC401B022801D9032041E78948C2
:1021900008380068C0F340000028F1D1207800F032
:1021A000080008282CD16069A8B101208349086083
:1021B000FFF708FC054606E0FFF704FC401B022879
:1021C00001D9032025E77B486C300068C0F340004C
:1021D0000028F1D014E0002078490860FFF7F2FBF6
:1021E000054606E0FFF7EEFB401B022801D903205D
:1021F0000FE770486C300068C0F340000028F1D150
:10220000207800F0040004287FD100BF0020009057
:1022100068483830006840F08050664938310860BE
:102220000846006800F08050009000BF00BF64487E
:10223000006840F4807062490860FFF7C3FB054600
:1022400006E0FFF7BFFB401B022801D90320E0E6B0
:102250005B48006800F480700028F2D000BFA068DE
:10226000012808D153486830006840F00100514906
:10227000683108601DE0A06805280DD14D48683020
:10228000006840F004004B49683108600846006867
:1022900040F0010008600CE046486830006820F01B
:1022A00001004449683108600846006820F00400D5
:1022B000086000BFA068A0B1FFF784FB054608E0F6
:1022C000FFF780FB401B41F28831884201D903208F
:1022D0009FE6384868300068C0F340000028EFD01F
:1022E00013E0FFF76FFB054608E0FFF76BFB401BB1
:1022F00041F28831884201D903208AE62D486830AE
:102300000068C0F340000028EFD1A069F0B329486D
:10231000006800F00C00082871D0A069022858D18C
:10232000002025490866FFF74DFB054606E0FFF74C
:1023300049FB401B022801D903206AE61D480838E2
:102340000068C0F340600028F1D1D4E907010843D8
:1023500047F6C07292FAA2F2B2FA82F2616A914032
:1023600008430122A16AC2EB51014FF4403292FAB4
:10237000A2F2B2FA82F2914008434FF0706292FAF0
:10238000A2F2B2FA82F2E16A914000E039E0084339
:102390000849091F0860012007490866FFF712FB7A
:1023A00005460FE0FFF70EFB401B02280AD9032069
:1023B0002FE600000838024000004742800E4742E6
:1023C0000070004010480068C0F340600028E9D069
:1023D00017E000200D490866FFF7F4FA054606E00D
:1023E000FFF7F0FA401B022801D9032011E6064846
:1023F0000068C0F340600028F2D102E0FFE701204E
:1024000007E6002005E600000038024000004742D1
:1024100010B504460CB9012010BD606A00B900BFB8
:102420000021A16294F8510028B9002084F85000DE
:10243000204600F033F8022084F85100206800683C
:1024400020F0400021680860D4E901010843E168F8
:1024500008432169084361690843218B01F4007135
:102460000843E1690843216A0843A16A08432168D7
:1024700008600421A06901EA1040616A08432168EC
:1024800048602068C06920F400602168C8610020AD
:102490006065012084F851000020BDE710B586B0CA
:1024A00004468D49206888423FD100BF002000903B
:1024B0008A48006840F480508849086008460068EF
:1024C00000F48050009000BF00BFE0200190022087
:1024D000029000200390032004900520059001A99C
:1024E0007F48FFF74FF97F487F4908604FF0C06091
:1024F000486000217C488160C1604FF480610161C7
:10250000002141618161C1614FF48031016200218C
:102510004162FEF7F9FF18B1E02174A002F0D8F98A
:1025200000BF7148E0648463D3E077492068884243
:1025300042D100BF002000906848001F006840F4AE
:1025400000406649091F08600846006800F4004022
:10255000009000BF00BF4FF4E050019002200290B5
:1025600000200390032004900620059001A96748ED
:10257000FFF708F9664867490860002048600021B5
:1025800064488160C1604FF4806101610021416154
:102590008161C1614FF48031016200214162FEF727
:1025A000B3FF20B140F20B1150A002F091F900BF2F
:1025B0005848E06484638CE057492068884241D1E0
:1025C00000BF002000904548006840F40050434997
:1025D00008600846006800F40050009000BF00BF8B
:1025E0004FF4E0400190022002900020039003206D
:1025F00004900520059001A94848FFF7C3F8394821
:10260000303847490860C00548600021444881606F
:10261000C1604FF480610161002141618161C1614C
:102620004FF48031016200214162FEF76DFF20B15D
:102630004FF49B712DA002F04BF900BF3848E064C5
:10264000846346E037492068884242D100BF0020B9
:1026500000902248006840F4801020490860084635
:10266000006800F48010009000BF00BF4FF460705D
:102670000190022002900020039003200490052086
:10268000059001A92848FFF77DF8164848302749EA
:1026900008604FF060604860002124488160C1609C
:1026A0004FF480610161002141618161C1614FF49A
:1026B0008031016200214162FEF726FF20B140F225
:1026C00061110AA002F004F900BF1848E0648463B5
:1026D00000BF06B010BD0000003001404438024089
:1026E0000000024040640240600300202E2E2F5361
:1026F00072632F73746D3332663478785F68616CFF
:102700005F6D73702E630000003C004000080240C3
:1027100010600240C003002000340140001002405D
:1027200020040020005001400014024080040020DA
:102730002DE9F84304460D4617461E464FF00008A3
:10274000C1466068B0F5827F0DD1A06858B90420F9
:1027500084F851003B462A4629462046009600F060
:1027600070F9BDE8F88300BF94F85000012801D14A
:102770000220F6E7012084F8500000BFFFF722F99D
:10278000804694F85100012802D04FF002097BE006
:1027900005B117B94FF0010976E0042084F8510023
:1027A00000206065A563A787E7872063A086E08691
:1027B00020646064A068B0F5004F05D1206800680F
:1027C00020F48040216808602068006800F0400024
:1027D000402805D02068006840F04000216808606B
:1027E000E068E8B918E02068806800F0010038B1BE
:1027F0002068007B28706D1CE08F401EE0870BE096
:102800003EB1701C40B1FFF7DDF8A0EB0800B0420C
:1028100002D34FF0030937E0E08F0028E3D11CE03A
:1028200018E02068806800F0010038B12068C068B6
:102830002880AD1CE08F401EE0870BE03EB1701C8D
:1028400040B1FFF7BFF8A0EB0800B04202D34FF051
:10285000030919E0E08F0028E3D16068B0F5827FBA
:102860000DD1A068B0F5004F03D0A068B0F5806F1F
:1028700005D12068006820F0400021680860606D84
:1028800008B14FF0010900BF012084F8510000BFDA
:10289000002084F8500000BF484662E72DE9F84365
:1028A00004460D4617461E464FF00008C14600BFBD
:1028B00094F85000012802D10220BDE8F8830120DD
:1028C00084F8500000BFFFF77DF8804694F851006F
:1028D000012802D04FF00209A9E005B117B94FF065
:1028E0000109A4E0032084F85100002060652563FD
:1028F000A786E786A063A087E08760642064A0685D
:10290000B0F5004F05D12068006840F48040216890
:1029100008602068006800F04000402805D020686A
:10292000006840F0400021680860E068B0F5006F82
:102930002AD1606810B1E08E012806D1288821686C
:10294000C860AD1CE08E401EE08619E020688068FB
:1029500000F00200022807D128882168C860AD1C59
:10296000E08E401EE0860BE03EB1701C40B1FFF7E8
:1029700029F8A0EB0800B04202D34FF0030956E05B
:10298000E08E0028E2D129E0606810B1E08E0128D5
:1029900006D12878216808736D1CE08E401EE08601
:1029A00019E02068806800F00200022807D128782A
:1029B000216808736D1CE08E401EE0860BE03EB17E
:1029C000701C40B1FEF7FEFFA0EB0800B04202D33E
:1029D0004FF003092BE0E08E0028E2D133460122BC
:1029E00002212046CDF8008001F0AFFA10B14FF07F
:1029F00003091CE042463146204601F092FA20B11C
:102A00004FF001092020606511E0A06850B900BFB7
:102A1000002000902068C0680090206880680090C6
:102A200000BF00BF606D08B14FF0010900BF012079
:102A300084F8510000BF002084F8500000BF4846D1
:102A40003BE72DE9FE4F04460D4616461F46DDF8CE
:102A500030804FF0000A0020029081464FF0010BB9
:102A6000019000BF94F85000012802D10220BDE877
:102A7000FE8F012084F8500000BFFEF7A3FF8146BF
:102A800094F851A060680290BAF1010F0BD002983F
:102A9000B0F5827F04D1A06810B9BAF1040F02D05A
:102AA00002200190D2E00DB106B117B901200190CA
:102AB000CCE094F85100012802D1052084F851009F
:102AC00000206065A663E787A7872563E786A7865A
:102AD000206460642068006800F04000402805D051
:102AE0002068006840F0400021680860E068B0F5A8
:102AF000006F43D1606810B1E08E012806D12888AC
:102B00002168C860AD1CE08E401EE0862FE0BBF15E
:102B1000000F10D0E08E70B12068806800F00200D5
:102B2000022808D128882168C860AD1CE08E401EAC
:102B3000E0864FF0000BE08F68B12068806800F0FD
:102B4000010040B12068C0683080B61CE08F401E94
:102B5000E0874FF0010B08F1010040B1FEF732FFB2
:102B6000A0EB0900404502D3032001906EE0E08E07
:102B70000028CCD1E08F0028C9D142E0606810B1B4
:102B8000E08E012806D12878216808736D1CE08E3C
:102B9000401EE0862FE0BBF1000F10D0E08E70B138
:102BA0002068806800F00200022808D115F8010BA7
:102BB00021680873E08E401EE0864FF0000BE08F26
:102BC00068B12068806800F0010040B12068C068EA
:102BD00006F8010BE08F401EE0874FF0010B08F173
:102BE000010040B1FEF7EEFEA0EB0900404502D324
:102BF000032001902AE0E08E0028CCD1E08F00284D
:102C0000C9D14346012202212046CDF8009001F0AF
:102C10009CF910B10320019018E04A464146204635
:102C200001F07FF920B101200190202060650DE0C6
:102C3000A06850B900BF002000902068C0680090D4
:102C400020688068009000BF00BF00BF012084F8AA
:102C5000510000BF002084F8500000BF019806E733
:102C6000042808D14FF0E021096941F004014FF038
:102C7000E022116107E04FF0E021096921F0040131
:102C80004FF0E0221161704710B52C480068401CDD
:102C90002A49086008460088C0F3080048B9284857
:102CA0000078401C2649087026480078401C2549B9
:102CB00008702248007800F03F0008B904F0C6FF11
:102CC0001E48007800F03F00012801D105F0F8F817
:102CD00003F012F919490968B1FBF0F200FB121078
:102CE000022802D1002004F0DBFE03F005F91349AD
:102CF0000968B1FBF0F200FB1210202802D101207C
:102D000004F0CEFE03F0F8F80C490968B1FBF0F2CC
:102D100000FB1210422802D1022004F0C1FE03F091
:102D2000EBF806490968B1FBF0F200FB12106028CD
:102D300002D1032004F0B4FE10BD000048010020C1
:102D4000AC0000201C01002070B504462546681E1A
:102D5000B0F1807F01D301200FE0681E4FF0E02129
:102D600048610F214FF0FF3001F0C6F800204FF00E
:102D7000E021886107200861002070BD10B5FFF7D1
:102D800083FF10BD024600BF92F83800012801D130
:102D900002207047012082F8380000BF022082F82C
:102DA00039001068406820F070001368586010689F
:102DB00040680B681843136858601068806820F0FA
:102DC000800013689860106880684B681843136827
:102DD0009860012082F8390000BF002082F8380096
:102DE00000BF00BFD5E710B504460CB9012010BDE7
:102DF00094F8390028B9002084F83800204600F003
:102E00000DF8022084F83900211D206801F09EF998
:102E1000012084F839000020E9E7000008B50168C6
:102E2000B1F1804F0FD100BF002100910649096820
:102E300041F00101044A11601146096801F00101E5
:102E4000009100BF00BF08BD40380240014602208B
:102E500081F839000868006840F001000A681060D5
:102E6000012081F83900002070472DE9F041044627
:102E70000D46002600BF94F83800012802D1022038
:102E8000BDE8F081012084F8380000BF022084F8FA
:102E900039002068866826F0770626F47F46206889
:102EA0008660286850283BD00CDC202860D004DCE9
:102EB000002853D0102865D155E030285DD0402837
:102EC00060D141E0602835D070280DD0B0F5805F2A
:102ED00003D0B0F5005F55D115E02068806820F080
:102EE0000700216888604EE0D5E902136A6820680F
:102EF00001F09EF92068866826F0770646F077068E
:102F0000206886603FE0D5E902136A68206801F016
:102F10008FF92068806840F480402168886032E042
:102F2000EA686968206801F099F95021206801F089
:102F30008BF928E0EA686968206801F0A4F960214B
:102F4000206801F081F91EE0EA686968206801F0F4
:102F500085F94021206801F077F914E0002120680C
:102F600001F072F90FE01021206801F06DF90AE01C
:102F70002021206801F068F905E03021206801F087
:102F800063F900E000BF00BF012084F8390000BFF2
:102F9000002084F8380000BF00BF71E770470000D0
:102FA0002DE9F0470446206805682068C668206857
:102FB00047694FF00008C14605F00F08B8F1000F4F
:102FC0000AD105F0200038B106F0200020B12046DB
:102FD00001F017FABDE8F087B8F1000F6DD007F0E7
:102FE000010018B906F49070002866D005F00100C1
:102FF00030B106F4807018B1E06B40F00100E0637E
:1030000005F0040030B107F0010018B1E06B40F0AA
:103010000200E06305F0020030B107F0010018B1D2
:10302000E06B40F00400E06305F0080030B107F009
:10303000010018B1E06B40F00800E063E06B68B39A
:1030400005F0200028B106F0200010B1204601F064
:10305000D8F920684069C0F38019E06B00F00800DF
:1030600010B9B9F1000F22D0204601F0A0F9206874
:10307000406900F04000B0B12068406920F0400095
:1030800021684861606B50B11748616B0865606BDF
:10309000FEF701F910B1606B016D88470CE0204626
:1030A000FFF77CFF08E02046FFF778FF04E02046AA
:1030B000FFF774FF0020E0638CE705F0800030B17B
:1030C00006F0800018B1204601F09CFB82E705F075
:1030D000400030B106F0400018B1204601F077F909
:1030E00078E700BF76E70000B342000810B5044659
:1030F0000CB9012010BDA06900B100E000BF94F838
:10310000390028B9002084F83800204600F028F85B
:10311000242084F839002068C06820F40050216819
:10312000C860204601F0BAF92068006920F4904098
:10313000216808612068406920F02A002168486100
:103140002068C06840F400502168C8600020E06337
:10315000202084F8390084F83A000020CAE70000F3
:1031600010B586B00446AF49206888426ED100BFD2
:1031700000200090AC48006840F40030AA49086084
:103180000846006800F40030009000BF00BF6020D7
:103190000190022002900120039003200490072058
:1031A000059001A9A148FEF7EDFAA148A1490860E0
:1031B0004FF00060486000219E488160C1604FF47C
:1031C00080610161002141618161C1614FF4803101
:1031D000016200214162FEF797F920B140F20E2111
:1031E00095A001F075FB00BF92486063846300BF47
:1031F0008F481830974908604FF0006048604021C0
:10320000944881600021C1604FF480610161002118
:1032100041618161C1614FF48031016200214162ED
:10322000FEF772F920B14FF4087183A001F050FB52
:1032300000BF88482063846300BF0022012126204C
:10324000FEF7FAFC2620FEF7EAFCE8E08249206857
:10325000884271D100BF002000907348006840F49C
:103260008020714908600846006800F480200090C2
:1032700000BF00BF4FF44070019002200290012077
:103280000390032004900720059001A96748FEF7EA
:1032900079FA67486038714908604FF0006048600B
:1032A00000216E488160C1604FF48061016100219E
:1032B00041618161C1614FF480310162002141624D
:1032C000FEF722F920B140F24D215BA001F000FB96
:1032D00000BF62486063846300BF5548303860496E
:1032E00008604FF00060486040215D488160002127
:1032F000C1604FF480610161002141618161C16160
:103300004FF48031016200214162FEF7FDF820B1E7
:1033100040F25F2148A001F0DBFA00BF5048206373
:10332000846300BF002201212720FEF785FC2720AF
:10333000FEF775FC73E0FFE74A49206888426ED1CA
:1033400000BF002000903848001D006840F02000B9
:103350003549091D08600846006800F0200000900B
:1033600000BF00BFC0200190022002900120039006
:10337000032004900820059001A93B48FEF702FABB
:103380003A483B4908608005486000213848816020
:10339000C1604FF480610161002141618161C161BF
:1033A0004FF48031016200214162FEF7ADF820B197
:1033B0004FF4237120A001F08BFA00BF2C4860630A
:1033C000846300BF294890302A4908604FF020608C
:1033D00048604021274881600021C1604FF480612E
:1033E0000161002141618161C1614FF4803101625D
:1033F00000214162FEF788F820B140F29E210EA024
:1034000001F066FA00BF1B482063846300BF0022FE
:1034100001214720FEF710FC4720FEF700FC06B014
:1034200010BD00000044004040380240000C024043
:1034300088600240DC0500202E2E2F5372632F730C
:10344000746D3332663478785F68616C5F6D737069
:103450002E6300003C060020004800409C0600202F
:10346000FC060020001401400008024028640240CD
:103470005C070020BC07002077B581B004461546E4
:1034800094F83A00202850D1029800B115B90120D3
:1034900004B070BD00BF94F83800012801D10220AB
:1034A000F6E7012084F8380000BF0298A062A585E5
:1034B0000020E063222084F83A001D48616BC86355
:1034C0001C48616B08641C48616BC8640020616B18
:1034D000086502AE32682368191D2B46606BFEF743
:1034E00089F800BF002000902068006800902068E4
:1034F0004068009000BF00BF00BF002084F8380083
:1035000000BF2068C06840F480702168C8602068EF
:10351000406940F00100216848612068406940F03E
:103520004000216848610020B2E70220B0E70000B7
:10353000174300085D430008C74200087047704702
:10354000F7B50446154694F8390020283DD1019876
:1035500000B10DB90120FEBD00BF94F8380001286C
:1035600001D10220F7E7012084F8380000BF01985C
:103570002062A584E5840020E063212084F83900DE
:103580001348216BC8631348216B08641248216BF0
:10359000C8640020216B086501AE23681A1D3168DC
:1035A0002B46206BFEF726F86FF04000216808607C
:1035B00000BF002084F8380000BF2068406940F058
:1035C0008000216848610020C5E70220C3E70000B1
:1035D0006B430008A1430008C742000870477047CA
:1035E00000BFFEE710B50648064908600846FDF72B
:1035F000D1FD20B14FF4937103A001F069F910BD22
:1036000000300240080000202E2E2F5372632F6DD1
:1036100061696E2E6300000008B500BF00200090B5
:103620003648006840F48000344908600846006865
:1036300000F48000009000BF00BF00BF0020009099
:103640000846006840F4001008600846006800F46E
:103650000010009000BF00BF002201210B20FEF7E8
:10366000EBFA0B20FEF7DBFA002202210C20FEF71A
:10367000E3FA0C20FEF7D3FA002202210E20FEF717
:10368000DBFA0E20FEF7CBFA002202211020FEF713
:10369000D3FA1020FEF7C3FA002202211120FEF710
:1036A000CBFA1120FEF7BBFA002201213820FEF7E9
:1036B000C3FA3820FEF7B3FA002202213920FEF7C0
:1036C000BBFA3920FEF7ABFA002201213A20FEF7BF
:1036D000B3FA3A20FEF7A3FA002201214420FEF7B4
:1036E000ABFA4420FEF79BFA002202214620FEF7A7
:1036F000A3FA4620FEF793FA08BD000030380240D6
:1037000000B587B000BF00200190FE48006840F07F
:103710001000FC4908600846006800F010000190A5
:1037200000BF00BF00BF002001900846006840F4C1
:10373000807008600846006800F48070019000BF47
:1037400000BF00BF002001900846006840F0040060
:1037500008600846006800F00400019000BF00BF48
:1037600000BF002001900846006840F0200008607B
:103770000846006800F02000019000BF00BF00BFB5
:10378000002001900846006840F08000086008466C
:10379000006800F08000019000BF00BF00BF002063
:1037A00001900846006840F0010008600846006883
:1037B00000F00100019000BF00BF00BF0020019099
:1037C0000846006840F0020008600846006800F003
:1037D0000200019000BF00BF00BF0020019008461A
:1037E000006840F0400008600846006800F04000B3
:1037F000019000BF00BF00BF002001900846006894
:1038000040F0080008600846006800F008000190D9
:1038100000BF00BF00224FF40051BB48FEF7CCF8B8
:10382000012240F66F01B948FEF7C6F800224FF4B6
:103830001051B648FEF7C0F8012248F21001B44812
:10384000FEF7BAF801223021AF48FEF7B5F80122A1
:1038500040F60301AF48FEF7AFF801224FF42061B4
:10386000AD48FEF7A9F800224FF40041AA48FEF740
:10387000A3F8002246F24021A848FEF79DF8012255
:103880004FF4C071A548FEF797F800224FF49061FD
:10389000A348FEF791F8002243F67C61A148FEF7A9
:1038A0008BF8012280219F48FEF786F801220B2128
:1038B0009D48FEF781F8012202219948FEF77CF825
:1038C0000022C0219848FEF777F840F2FF5002909E
:1038D000032003900020049002A98F48FDF752FFB7
:1038E0004FF473600290032003900020049002A91B
:1038F0008D48FDF747FF4FF40050029001200390E0
:1039000004900020059002A97F48FDF73BFF4CF290
:103910000F300290032003900020049002A97A48FF
:10392000FDF730FF40F66F000290012003900490F5
:103930000320059002A97548FDF724FF41F210000D
:1039400002907A4803900020049002A96F48FDF786
:1039500019FF4FF4105002900120039004900020B2
:10396000059002A96948FDF70DFF41F60F7002901E
:10397000032003900020049002A96548FDF702FF90
:1039800049F63C400290032003900020049002A9D5
:103990006248FDF7F7FE48F2100002900120039004
:1039A00004900320059002A95948FDF7EBFE302052
:1039B00002900120039004900320059002A9524830
:1039C000FDF7E0FE40F60300029001200390049012
:1039D0000320059002A94F48FDF7D4FE4FF23C307A
:1039E0000290032003900020049002A94948FDF7AB
:1039F000C9FE4FF440400290032003900020049041
:103A000002A94248FDF7BEFE4CF2031002900320CB
:103A100003900020049002A94248FDF7B3FE4FF442
:103A2000206002900120039004900320059002A9D9
:103A30003948FDF7A7FE4FF40040029001200390A3
:103A400004900020059002A93348FDF79BFE4FF437
:103A500080600290354803900020049002A92D4810
:103A6000FDF790FE46F24020029001200390049062
:103A70000020059002A92948FDF784FE4FF4C0708C
:103A800002900120039004900320059002A923488E
:103A9000FDF778FE4FF480600290012003900490BF
:103AA0000020059002A91E48FDF76CFE4FF61D0090
:103AB0000290032003900020049002A91848FDF70B
:103AC00061FE43F6FC6002901120039001200490F7
:103AD0000020059002A91348FDF754FE0B20029028
:103AE0000120039004900320059002A90E48FDF7E1
:103AF00049FE042002900D4803900020049002A982
:103B0000094815E030380240000802400014024025
:103B1000000002400004024000100240001C02406D
:103B2000000C02400018024000200240000011106A
:103B3000FDF728FE0220029001200390022004904D
:103B40000020059002A91A48FDF71CFE8020029073
:103B500011200390012004900020059002A9144830
:103B6000FDF710FEC0200290112003900120049068
:103B70000020059002A90F48FDF704FE0022022153
:103B80000820FEF759F80820FEF749F80022022124
:103B90000A20FEF751F80A20FEF741F80022012121
:103BA0002820FEF749F82820FEF739F807B000BDB5
:103BB000000C02400020024010B50D480D4908607D
:103BC0000D48486000210B488160C1604FF480417E
:103BD0000161002141618161C1610162FDF7F8FE6F
:103BE00020B14FF49D7105A000F072FE10BD0000E1
:103BF00000540040AC010020801A06002E2E2F53E6
:103C000072632F6D61696E2E6300000010B510485D
:103C1000104908604FF48270486000210D488160AF
:103C2000C160016141614FF4007181611021C16186
:103C300000210162416281620A21C162FEF7E8FB54
:103C400020B140F2511104A000F042FE10BD00006E
:103C500000300140000200202E2E2F5372632F6D82
:103C600061696E2E6300000010B5104810490860AD
:103C70004FF48270486000210D488160C16001618D
:103C800041614FF4007181610821C161002101622D
:103C9000416281620A21C162FEF7BAFB20B14FF492
:103CA000B47104A000F014FE10BD0000003C004000
:103CB000580200202E2E2F5372632F6D61696E2ED5
:103CC0006300000010B51048104908604FF482707E
:103CD000486000210D488160C160016141614FF47D
:103CE000007181611021C161002101624162816224
:103CF0000A21C162FEF78CFB20B140F27F1104A0C3
:103D000000F0E6FD10BD000000340140B0020020CC
:103D10002E2E2F5372632F6D61696E2E630000008B
:103D200010B51048104908604FF4827048600021B7
:103D30000D488160C160016141614FF40071816192
:103D40001021C16100210162416281620A21C162C8
:103D5000FEF75EFB20B14FF4CB7104A000F0B8FD7C
:103D600010BD000000500140080300202E2E2F53EC
:103D700072632F6D61696E2E6300000000B587B01D
:103D80004FF08040184908602A20486000211648FA
:103D900081604FF6FF71C1604FF400710161FFF760
:103DA00022F820B140F2A91110A000F091FD4FF4CB
:103DB0008050039003A90C48FFF757F820B140F258
:103DC000AF110AA000F084FD00200190029001A92B
:103DD0000548FEF7D7FF20B14FF4DB7103A000F0D8
:103DE00077FD07B000BD0000E00400202E2E2F5309
:103DF00072632F6D61696E2E6300000010B50C4870
:103E00000C4908604FF4E1304860002109488160A6
:103E1000C16001610C21416100218161C161FFF735
:103E200065F920B140F2C91103A000F051FD10BDA9
:103E3000004400401C0500202E2E2F5372632F6D6E
:103E400061696E2E6300000010B50C480C490860D3
:103E50004FF4E1204860002109488160C1600161A0
:103E60000C21416100218161C161FFF73FF920B15F
:103E70004FF4EE7103A000F02BFD10BD0048004090
:103E80005C0500202E2E2F5372632F6D61696E2EFC
:103E90006300000010B50C480C4908604FF4E13095
:103EA0004860002109488160C16001610C214161C5
:103EB00000218161C161FFF719F920B140F2EF11D2
:103EC00003A000F005FD10BD001401409C0500207A
:103ED0002E2E2F5372632F6D61696E2E63000000CA
:103EE00000BFFEE77047000002480068C0F30220F0
:103EF000704700000CED00E010B5002807DA0A0753
:103F0000140E054A00F00F031B1FD45403E00A07E8
:103F1000130E024A135410BD18ED00E000E400E057
:103F20007047F8B504460D4616462B460022802100
:103F30002046009600F009F828B1606D40F020009E
:103F400060650320F8BD0020FCE72DE9F041044640
:103F50000E4617461D46DDF818803FE0681CE0B3AA
:103F60002DB1FDF72FFDA0EB0800A84236D3206845
:103F7000406820F0E000216848606068B0F5827F0A
:103F80000DD1A068B0F5004F03D0A068B0F5806FE8
:103F900005D12068006820F0400021680860A06A10
:103FA000B0F5005F0ED100BF206800684DF6FF71CC
:103FB0000840216808602068006840F400502168CB
:103FC000086000BF012084F8510000BF002084F881
:103FD000500000BF0320BDE8F081FFE72068806843
:103FE0003040B04201D1012000E00020B842B5D1FC
:103FF0000020F0E7704710B5FDF7ACFDFEF7BEFE00
:1040000010BD000010B592B000BF002000903048F5
:10401000006840F080502E4908600846006800F0B3
:104020008050009000BF00BF00BF002000902948D2
:10403000006840F44040274908600846006800F4E2
:104040004040009000BF00BF012006900004079090
:1040500002200C9041050D9108210E914FF4A8719A
:104060000F91022110910421119106A8FDF7AAFFDA
:1040700020B14FF4817118A000F02AFC0F200190AC
:1040800002200290002003904FF4A05004904FF4BF
:1040900080500590052101A8FDF720FE20B14FF4C6
:1040A00088710DA000F014FCFDF700FF4FF47A7149
:1040B000B0FBF1F42046FEF747FE0420FEF7D0FDEA
:1040C00000221146501EFDF7B7FD12B010BD0000D2
:1040D00040380240007000402E2E2F5372632F6D27
:1040E00061696E2E630000001448006840F470009F
:1040F000124908601248006840F001001049086049
:1041000000200F49083108600D4800680D4908403B
:104110000B4908600C48091D0860081F006820F45E
:104120008020091F0860002005490C3108604FF00D
:1041300000600249803908607047000088ED00E0A7
:1041400000380240FFFFF6FE103000240022026813
:104150002C4B98420ED0B0F1804F0BD02A4B984296
:1041600008D02A4B984205D0294B984202D0294BBF
:10417000984201D1012300E000231BB122F070021C
:104180004B681A431F4B984220D0B0F1804F1DD08E
:104190001D4B98421AD01D4B984217D01C4B984289
:1041A00014D01C4B984211D01B4B98420ED01B4B85
:1041B00098420BD01A4B984208D01A4B984205D01F
:1041C000194B984202D0194B984201D1012300E0CB
:1041D00000231BB122F44072CB681A4302608B6843
:1041E000C3620B688362074B984202D0094B984226
:1041F00001D1012300E000230BB10B69036301230C
:104200004361704700000140000400400008004086
:10421000000C004000040140004001400044014007
:104220000048014000180040001C004000200040F1
:1042300030B50C460021816821F47F4142EA032514
:1042400025432943816030BD0A460021816821F061
:10425000700142F0070319438160704730B50B4687
:10426000144600210022026A056A25F00105056254
:10427000816921F0F00141EA041122F00A021A4397
:104280008161026230BD30B50B4614460021002228
:10429000056A25F0100505628169026A21F4704102
:1042A00041EA043122F0A00242EA03128161026273
:1042B00030BD70B50546AC6B0020E085E08420463B
:1042C000FEF76CFE70BD70B506460025B46B206825
:1042D0004069C0F3C01594F83900212805D125B1F3
:1042E0000020E084204600F082F820684069C0F396
:1042F000801594F83A00222805D125B10020E085E8
:10430000204600F054F8E06B40F01000E0632046D7
:10431000FEF744FE70BD70B50546AC6B28680068BA
:1043200000F48070B0B90020E0852068C06820F4F7
:1043300080702168C8602068406920F00100216811
:1043400048612068406920F04000216848612020D1
:1043500084F83A002046FFF7F1F870BD70B50446C6
:10436000A56B2846FFF7EBF870BD70B50546AC6B42
:104370002868006800F4807070B90020E08420682C
:10438000406920F08000216848612068C06840F0E2
:1043900040002168C86002E02046FFF71FF970BDA9
:1043A00070B50446A56B2846FFF719F970BD016882
:1043B000C96821F490710268D1600168496921F0EF
:1043C000010102685161202180F83A10704710B550
:1043D00004462068C06820F040002168C8602020A2
:1043E00084F839002046FFF7F9F8002010BD016875
:1043F000C96821F0C0010268D160202180F839101D
:10440000704770B5044694F83A00222844D1A06859
:10441000B0F5805F13D1A56A206940B92068406873
:10442000C0F308002880A06A801CA06219E0206800
:104430004068C0B22880A06A401CA06211E02069D8
:1044400038B920684068C1B2A26A501CA0621170DD
:1044500007E02068406800F07F01A26A501CA0625B
:104460001170E08D401E80B2E08598B92068C06868
:1044700020F490702168C8602068406920F0010035
:1044800021684861202084F83A002046FFF756F85A
:10449000002070BD0020FCE70220FAE72DE9F04182
:1044A000044600252068056925F44055E068054369
:1044B000206805612068C56849F20C608543216960
:1044C000A068084361690843E1690843054320681F
:1044D000C5602068456925F44075A06905432068DA
:1044E0004561E069B0F5004F7ED1C449206888423B
:1044F00003D0C349206888425DD1FDF7F3FC00EB8F
:10450000C00101EB001061684900B0FBF1F06421CB
:10451000B0FBF1F00601FDF7E5FC00EBC00101EB9B
:10452000001061684900B0FBF1F7FDF7DBFC00EB20
:10453000C00101EB001061684900B0FBF1F064219B
:10454000B0FBF1F000EBC00101EB0010A7EB800025
:10455000322101EBC0006421B0FBF1F000F0F80063
:1045600006EB4006FDF7BEFC00EBC00101EB0010BE
:1045700061684900B0FBF1F7FDF7B4FC00EBC00146
:1045800001EB001061684900B0FBF1F06421B0FB61
:10459000F1F000EBC00101EB0010A7EB800032212D
:1045A00001EBC0006421B0FBF1F000F007003044E3
:1045B0002168886020E1FDF77FFC00EBC00101EB82
:1045C000001061684900B0FBF1F06421B0FBF1F02C
:1045D0000601FDF771FC00EBC00101EB0010616802
:1045E0004900B0FBF1F700E045E0FDF765FC00EBAA
:1045F000C00101EB001061684900B0FBF1F06421DB
:10460000B0FBF1F000EBC00101EB0010A7EB800064
:10461000322101EBC0006421B0FBF1F000F0F800A2
:1046200006EB4006FDF748FC00EBC00101EB001073
:1046300061684900B0FBF1F7FDF73EFC00EBC001FB
:1046400001EB001061684900B0FBF1F06421B0FBA0
:10465000F1F000EBC00101EB0010A7EB800032216C
:1046600001EBC0006421B0FBF1F000F00700304422
:1046700021688860C0E061492068884203D06049B1
:10468000206888425CD1FDF72DFC00EBC00101EBF6
:10469000001061688900B0FBF1F6FDF723FC00EB28
:1046A000C00101EB001061688900B0FBF1F06421EA
:1046B000B0FBF1F000EBC00101EB0010A6EB8000B5
:1046C000322101EB00106421B0FBF1F000F0F006A4
:1046D000FDF708FC00EBC00101EB001061688900E8
:1046E000B0FBF1F06421B0FBF1F006EB0016FDF732
:1046F000F9FB00EBC00101EB001061688900B0FB21
:10470000F1F7FDF7EFFB00EBC00101EB0010616872
:104710008900B0FBF1F06421B0FBF1F000EBC001C7
:1047200001EB0010A7EB8000322101EB00106421A7
:10473000B0FBF1F000F00F003044216888605BE0CE
:10474000FDF7BAFB00EBC00101EB001061688900C6
:10475000B0FBF1F6FDF7B0FB00EBC00101EB001080
:1047600061688900B0FBF1F06421B0FBF1F000EB6F
:10477000C00101EB0010A6EB8000322101EB00101C
:104780006421B0FBF1F000F0F006FDF795FB00EBC3
:10479000C00101EB001061688900B0FBF1F06421F9
:1047A000B0FBF1F006EB0016FDF786FB00EBC00155
:1047B00001EB001061688900B0FBF1F7FDF77CFBAD
:1047C00000EBC00101EB001061688900B0FBF1F063
:1047D0006421B0FBF1F000EBC00101EB0010A7EB8E
:1047E0008000322101EB00106421B0FBF1F000F0F9
:1047F0000F00304421688860BDE8F081001001405E
:1048000000140140014691F8390021282CD1886814
:10481000B0F5805F0FD10A6A1088C0F308000B68FA
:104820005860086918B9086A801C086209E0086ABB
:10483000401C086205E00B6A581C086218780B6877
:104840005860C88C401E80B2C88458B90868C068D7
:1048500020F080000B68D8600868C06840F0400015
:104860000B68D860002070470220FCE710B50648AE
:104870000068006800F0100008B103F055FE02481F
:10488000FEF78EFB10BD00001C05002010B5064889
:104890000068006800F0100008B103F0F3FD024862
:1048A000FEF77EFB10BD00005C05002010B5064839
:1048B0000068006800F0100008B103F00BFE024829
:1048C000FEF76EFB10BD00009C05002000BFFEE758
:1048D00000BFFEE70FB4084B10B504A902AA039865
:1048E00000F034FF044602A9002001F060F92046E0
:1048F00010BC5DF814FB0000AF5B000803B4019826
:104900004100009850EAC12018BF04204A0D18BF8A
:1049100040F0010040F2FF72B2EB515F08BF40F07F
:104920000200012808BF052002B070470000000007
:104930002DE9F04D2DED040B2DED0E8B96B0DDE93C
:104940002550279CDDF890A025F0004624F0004873
:10495000BAF1000F14BF0121002101EB4502FC490F
:1049600053184A1093422AD3002814BF012300236E
:1049700003EB44030B44F7498B4220D358EA000170
:104980009FEDF59B76D0DFF8D8B35D4503D1BAF142
:10499000000F05D188E0BAF1000F08BF002100D058
:1049A000012101EB450111F5001F08D8002814BFB3
:1049B0000121002101EB440111F5001F0BD99DEDF0
:1049C000261B9DED240B16B0BDEC0E8B04B0BDE88C
:1049D000F04D00F069BE0027002DBCBFE1498845BD
:1049E00021DAE1498845A8BF02271CDAC3451ADC51
:1049F000DE4901EB2851142908DDC1F1340220FA07
:104A000002F101FA02F282420DD108E058B9C1F177
:104A1000140228FA02F101FA02F2424503D101F030
:104A20000101C1F1020756EA0A0124D1002C22DA61
:104A3000002D18BF022F01D0012F0AD0022000F054
:104A40007FFE16B0BDEC0E8B04B0BDE8F04D00F05B
:104A500013BE022000F074FE00F00EFE51EC100BAD
:104A600081F0004141EC100B16B0BDEC0E8B04B090
:104A7000BDE8F08D18E09FEDBEAB9FEDBF8B002829
:104A800071D1B848804522D105F1804010F58010E1
:104A900008BFBAF1000F07D0B3450ADC002CA8BF4D
:104AA0009DED260BE0DA0DE0B0EE490AF0EE690A62
:104AB000DAE7002C06DA9DED260B51EC100B81F0A5
:104AC00000416FE0AE48784490ED000BCCE7D8454C
:104AD0004DD1002C48DA2EB186423AD1BAF1000FFE
:104AE00042D126E0BAF1000F13D0022000F028FED8
:104AF00000F0F6FD8DED020B9DED240B8DED000B0E
:104B000010EE900A039961F31E0003909DED020BD5
:104B1000AAE78DED02AB9DED240B1AEE901A10EE74
:104B2000900A8DED000B61F31E0003909DED020BCA
:104B30009AE78DED028B9DED240B18EE901A10EE86
:104B4000900A8DED000B61F31E0003909DED020BAA
:104B50008AE709DA9DED240B51EC190B53EC102B6D
:104B6000FBF77AFD1EE020E09DED240B7CE78642FA
:104B70001BDAB4F1804F0DD0A4F10050B0F1FF501A
:104B800013D1002D11DB9DED240B51EC100B03F024
:104B90005BFB07E09DED240B53EC102B51EC100B4D
:104BA00000F0C2BC41EC100B5EE79DED240B51EC14
:104BB000100B01F09FF8BAF1000FCDE90E0142D1C0
:104BC0009FED710B46B3A6F1E040B0F17F600CD0D1
:104BD0005E4538D1002D00DAA7B3022F0CBF0120AB
:104BE0004FF0FF30FBF749FCDCE7002D01DD002C26
:104BF0000DDA002D01DD002C1FDB002D16DA002C54
:104C000014DB012F08BF9FED620B3FF42DAFB0EE18
:104C10004A0AF0EE6A0A27E7022F18BF002D0CD0CF
:104C2000012F0AD1002DFFF61FAF06E0002DB8BFFF
:104C3000002C08DA012F3FF417AFB0EE480AF0EE6F
:104C4000680A11E71BE0012000EBE57050EA07015C
:104C500015D0791EB0EE498AF0EE698A084308BF84
:104C60009FED4D8B4E480025804570DD4D494E48E7
:104C7000884514DDB0420DDB002C19DB2FE001204C
:104C800000F05EFD16B0BDEC0E8B04B0BDE8F04D3B
:104C900000F016BDB34502DC002C09DC1FE08642A3
:104CA00002DA002C1BDA03E05E452BDD002C16DD5A
:104CB000022000F045FD00F013FD8DED020B53ECDA
:104CC0001A2B51EC180BFBF766FBCDE90001039999
:104CD000019861F31E0003909DED020BC4E60220D3
:104CE00000F02EFD00F00CFD10EE901A18EE900A68
:104CF0008DED020B8DED008B61F31E0003909DED99
:104D0000020BB1E69DED0E0B53EC192B51EC100B81
:104D1000FBF73BFB9FED260BCDE9080153EC102B75
:104D20009DED080B51EC100BFBF735FB9FED221BA3
:104D300053EC112BFBF72CFB9DED081B53EC112BB7
:104D4000FBF729FB9FED1E1B53EC112B3CE08CE085
:104D5000FFFF1F00FFFF0F00000000000000F03FFA
:104D60000000F03F0000F07F0000404301FCFFFF27
:104D7000000000000000F07F0000000000000000C4
:104D80004E3D000000000000000000000000008018
:104D9000000000000000F0FF000000000000F0BF75
:104DA0000000E0410000F043FFFFEF3F0000000083
:104DB000000000000000D03F555555555555D53FD2
:104DC000000000000000E03FFBF7E2FA9DED080B59
:104DD00041EC1A0B53EC102B51EC100BFBF7DBFAE8
:104DE00053EC1A2BFBF7D7FA41EC1A0B9FEDFE0B95
:104DF00053EC102B9DED080B51EC100BFBF7CBFA8D
:104E000041EC1B0B9FEDFA0B51EC1A0B53EC102BE2
:104E1000FBF7C1FA41EC1A0B9FEDF70B53EC102B8B
:104E20009DED080B51EC100BFBF7B5FA53EC1A2B68
:104E3000FBF7ABFA41EC1A0B51EC1B0B53EC1A2BA2
:104E4000FBF702FA0690CDE906519DED060B53ECF7
:104E50001B2B51EC100BFBF798FA53EC1A2BFBF7BA
:104E600097FA41EC100B00F0A1B90020B6F5801FB5
:104E70000EDA9FEDE30B53EC102B9DED0E0B51EC76
:104E8000100BFBF788FACDE90E016FF034000E46E7
:104E900000EB2650A0F2FF37C6F31300DA4940F0CA
:104EA0007F6646F040568842D8BF002408DDD749C7
:104EB0008142C8BF012403DC0024A6F580167F1CB4
:104EC000D348784400EBC4000F9690ED00CB9DEDE5
:104ED0000E0B53EC1C2B51EC100BFBF756FA9DED0F
:104EE0000E0B41EC1B0B53EC1C2B51EC100BFBF786
:104EF000ABF941EC100B51EC190B53EC102BFBF7F9
:104F0000ABFB41EC1D0B51EC1B0B53EC1D2BFBF7CA
:104F100042FA41EC1A0BBF488DED10AB7844109566
:104F200090ED000B4FF0005040EA660000EB84402B
:104F30008DED080B00F5002009909DED080B53EC5A
:104F40001C2B51EC100BFBF720FA9DED0E1B53ECC4
:104F5000112BFBF71DFA41EC100B53EC102B9DEDC0
:104F6000100B51EC100BFBF716FA9DED080B41EC02
:104F70001C0B53EC102B9DED100B51EC100BFBF7A1
:104F80000AFA53EC1B2BFBF703FA53EC1C2BFBF731
:104F9000FCF953EC1D2BFBF7FEF941EC1C0B53EC19
:104FA0001A2B51EC1A0BFBF7F6F941EC1B0B9A4844
:104FB0000621B0EE4B0AF0EE6B0A784400F0E0FAFE
:104FC000B0EE401AF0EE601AB0EE41DAF0EE61DABF
:104FD00053EC1B2B51EC1B0BFBF7DDF953EC1D2B9A
:104FE000FBF7D9F99DED100B41EC1B0B53EC1A2B81
:104FF00051EC100BFBF728F953EC1C2BFBF7CBF90A
:1050000053EC1B2BFBF720F99DED100B41EC1B0B18
:1050100053EC102B51EC100BFBF7BDF941EC1D0BC1
:105020009FED7FEB53EC1E2BFBF70EF953EC1B2B84
:10503000FBF70AF90890CDE908519DED080B53ECF8
:105040001E2B51EC100BFBF7A0F953EC1D2BFBF7BB
:105050009CF953EC1B2BFBF79BF99DED080B41ECE6
:105060001D0B53EC102B9DED100B51EC100BFBF7AF
:1050700092F941EC1B0B53EC1A2B51EC1D0BFBF777
:105080008AF99DED080B41EC1A0B53EC102B51ECF7
:105090001C0BFBF780F953EC1A2BFBF7D5F841EC0E
:1050A0001A0B51EC1B0B53EC1A2BFBF7CDF80C90A1
:1050B000CDE90C519DED0C0B53EC1B2B51EC100B5F
:1050C000FBF763F953EC1A2BFBF762F941EC1B0B6E
:1050D0009FED550B53EC102B9DED0C0B51EC100B71
:1050E000FBF759F941EC1A0B9FED510B51EC1B0BDF
:1050F00053EC102BFBF74FF941EC1B0B9FED4E0BC4
:1051000053EC102B9DED0C0B51EC100BFBF743F9FE
:1051100053EC1B2BFBF798F841EC100B48487844F4
:1051200000EBC40090ED001B51EC100B53EC112B65
:10513000FBF78AF841EC1B0B3846FBF79EF9CDE9EB
:10514000080153EC1B2B51EC1A0BFBF77DF841ECDB
:10515000100B3C48784400EBC40090ED00CB51ECC0
:10516000100B53EC1C2BFBF76FF89DED081B53EC59
:10517000112BFBF769F80690CDE906519DED080B60
:1051800053EC102B9DED060B51EC100BFBF7FDF8CB
:1051900053EC1C2BFBF7F9F853EC1A2BFBF7F5F843
:1051A00053EC1B2BFBF7F4F841EC100B9DED261B89
:1051B00053EC102B8DED001B00959DED260B51EC53
:1051C000100BFBF7E8F89DED000B41EC1A0B53ECCC
:1051D000102B9DED260B51EC100BFBF7D6F89DED37
:1051E000061B53EC112B2FE0000000604715F73F22
:1051F000FE822B654715F73F44DF5DF80BAE543E4A
:1052000000000000000040438E9803007AB60B00B7
:10521000CA380000F8380000023800000000000022
:105220000000000000000840000000E009C7EE3F59
:10523000FD033ADC09C7EE3FF5015B14E02F3EBEEB
:105240008E36000048360000FBF7A5F853EC1A2B09
:10525000FAF7FAFF9DED060B41EC1A0B53EC102BFD
:105260009DED000B51EC100BFBF795F8CDE90C010F
:105270009DED0C0B51EC1A0B53EC102BFAF7E4FFDD
:10528000CDE902010C46AA498C422FDB611A084382
:1052900018D19DED0C0B53EC102B9DED020B51EC36
:1052A000100BFBF772F841EC1B0B9FEDA30B51ECBD
:1052B0001A0B53EC102BFAF7C7FF53EC1B2BFBF721
:1052C00051FA2DD2022000F03BFA00F009FA10EE5C
:1052D000901A18EE900A8DED020B8DED008B61F3A4
:1052E0001E0003909DED020BFFF7BEBB944A24F015
:1052F0000041914214D39349214408437FF4EFAC19
:105300009DED0C0B53EC102B9DED020B51EC100B93
:10531000FBF73BF853EC1A2BFBF724FA7FF6DFACD4
:1053200024F000408849894A002601EB205182423E
:105330002BDA481C4FF4801121FA00F02044844AF3
:10534000C0F30A517A44A1F2FF3192ED000B814A79
:105350008DED080BCA4020EA0202C0F3130040F4AE
:105360008010C1F1140120FA01F60992002CB8BF97
:1053700076429DED080B53EC102B9DED0C0B51EC80
:10538000100BFBF702F8CDE90C019DED0C0B51EC75
:105390001A0B53EC102BFAF757FF9FED6F0B089089
:1053A000CDE9085153EC102B9DED080B51EC100B7F
:1053B000FAF7F1FF41EC1B0B9FED690B53EC102B3F
:1053C0009DED080B51EC100BFAF7E5FF9DED0C0B72
:1053D00041EC1C0B53EC102B9DED080B51EC100B0A
:1053E000FAF7D3FF53EC1A2BFAF7D2FF9FED5E1BAF
:1053F00053EC112BFAF7CFFF53EC1C2BFAF724FFD9
:1054000041EC1A0B51EC1B0B53EC1A2BFAF71CFF57
:10541000CDE902019DED020B53EC1B2B51EC100B5F
:10542000FAF7B3FF53EC1A2BFAF7B2FF9DED020B1C
:1054300041EC1A0B53EC102B51EC100BFAF7ABFFAD
:10544000CDE908014A489DED080B0521784400F09C
:1054500097F89DED081B51EC100B53EC112BFAF74C
:105460009AFF9DED021B53EC112BFAF791FFCDE94A
:1054700006019DED020B53EC1A2B51EC100BFAF7C1
:105480008AFF53EC1A2BFAF7DFFE9FED3B0B41EC42
:105490001A0B53EC102B9DED060B51EC100BFAF789
:1054A00074FF9DED060B41EC1B0B53EC102B9DED97
:1054B000020B51EC100BFAF76EFF53EC1B2BFBF7B2
:1054C000CBF853EC1A2BFAF760FF9DED021B53EC5F
:1054D000112BFAF75AFF53EC192BFAF759FFCDE9C4
:1054E000020101EB065001150029C8BF039015DC2D
:1054F0009DED020B324651EC100BFBF71CF9FFF748
:10550000FDF9042808BF00F0FBF832469DED020BC0
:1055100051EC100BFBF70FF9CDE902019DED020BE9
:1055200051EC180B53EC102BFAF735FFFFF73ABB91
:105530000000904000000000FE822B654715973C5C
:1055400000CC904000346F3F01FCFFFF0000E03FC3
:10555000D0340000FFFF0F0000000000432EE63FA4
:10556000396CA80C615C20BEEF39FAFE422EE63F92
:10557000A033000000000000000000000000004018
:1055800070B504462DED028B4D1E00EBC500B0EE4C
:10559000408AF0EE608A90ED000B35F0060017D0DF
:1055A00053EC182B51EC100BFAF7F5FE41EC100BF5
:1055B0006D1E04EBC50090ED001B51EC100B53EC7D
:1055C000112BFAF741FE41EC100B35F00600E7D144
:1055D000022D36D0042D1CD0062D1CBFBDEC028B35
:1055E00070BD53EC182B51EC100BFAF7D4FE94ED70
:1055F0000A1B53EC112BFAF727FE53EC182BFAF782
:10560000CAFE94ED081B53EC112BFAF71DFE41EC7A
:10561000100B53EC182B51EC100BFAF7BCFE94ED69
:10562000061B53EC112BFAF70FFE53EC182BFAF76D
:10563000B2FE94ED040B53EC102BFAF705FE41EC8F
:10564000100B53EC182B51EC100BFAF7A4FE94ED51
:10565000021B53EC112BFAF7F7FD53EC182BFAF75A
:105660009AFE94ED001B53EC112BFAF7EDFDBDEC07
:10567000028B41EC100B70BD9FED070B10B553EC86
:10568000102B9FED070B51EC100BFAF7E5FF41ECE7
:10569000100B10BD00000000000000000000000022
:1056A000000000000000F03F10B553EC112B51EC4E
:1056B000100BFAF7C9FD41EC100B10BD0000000003
:1056C0009FED050B10B553EC102B51EC100BFAF7B6
:1056D000C3FF41EC100B10BD0000000000000000F3
:1056E0009FED050B10B553EC102B51EC100BFAF796
:1056F00052FE41EC100B10BD0000000000000070D5
:105700009FED050B10B553EC102B51EC100BFAF775
:1057100042FE41EC100B10BD000000000000001024
:1057200002E008C8121F08C1002AFAD1704770476A
:10573000002001E001C1121F002AFBD170470000C8
:105740000149086070470000A80100202DE9FF4FC3
:105750008DB00F460546002606E025280BD0DDE972
:105760000F1290476D1C761C28780028F5D111B0D7
:105770003046BDE8F08F0024A246A1460122EC4944
:1057800000E0044315F8013F203B02FA03F0084211
:10579000F7D128782A2810D06FF02F022878A0F1AE
:1057A0003001092914D80AEB8A0102EB410144F0C7
:1057B000020400EB010A6D1CF0E701CF5FEA000A6A
:1057C00003D544F40054CAF1000A44F002046D1CED
:1057D00028782E2817D115F8010F44F004042A2840
:1057E0000ED06FF02F022878A0F1300109290AD8D5
:1057F00009EB890102EB410100EB01096D1CF2E7A5
:1058000057F8049B6D1C28786C280FD006DC4C28B8
:1058100017D068280DD06A2814D104E0742810D05D
:105820007A280FD10DE044F400140AE044F4801407
:1058300001E044F440146978814202D104F58014F7
:105840006D1C6D1C2A786E2A1FD00CDC632A31D0A7
:1058500004DC002A8BD0582A11D1A3E0642A68D036
:10586000692A0CD165E0732A2ED004DC6F2A73D02C
:10587000702A04D19BE0752A6FD0782A6ED010462A
:10588000DDE90F129047761C50E1C4F30250022864
:1058900006D0032809D0042801CF09D0066045E1CD
:1058A00001CFF117C0E9006140E101CF06803DE181
:1058B00006703BE117F8040B8DF8000000208DF80E
:1058C0000100EB46012003E057F804BB4FF0FF3026
:1058D00061074FF0000102D40DE008F10101884694
:1058E00049450FDA8045F8DB1BF808100029F4D190
:1058F00008E008F1010188468142FADB1BF8081034
:105900000029F6D1DDE90F23AAEB080081462146E4
:1059100000F036F9304400EB080604E0DDE90F1230
:105920001BF8010B9047B8F10108F7D22146484611
:10593000F7E00A21C4F302534FF0000B0891022B49
:1059400004D001CFC117032B09D00AE0FF1D27F0B7
:105950000707F7E8020108E032E01FE020E000B2AC
:10596000C117042B01D140B2C117031E71F100030E
:1059700007DA4FF0000CD0EB0C006CEB01012D238B
:1059800002E0230504D52B238DF82430012303E006
:10599000E30701D02023F7E7984658E00A2110E0FA
:1059A00010210EE010204FF0000B08900CE01021A9
:1059B0004FF0000B44F004044FF00809089103E095
:1059C00008214FF0000B0891C4F30253022B04D0BE
:1059D00001CF0021032B06D006E0FF1D27F00707AB
:1059E000F7E8020103E080B2042B00D1C0B24FF00F
:1059F000000823072BD5702A07D0DDF820C08CF0D3
:105A0000100C5CEA0B0C05D00EE040238DF824301E
:105A1000012308E050EA010306D030238DF824303A
:105A20008DF8252002239846DDF820C08CF0080C64
:105A30005CEA0B0C0BD150EA010301D1630706D5D8
:105A400030238DF824304FF00108A9F10109582ABC
:105A500004D038A20B9208AA0A920BE03AA2F9E706
:105A60005B46089AFAF739FD0B9B9B5C0A9A521E1B
:105A70000A92137050EA0102F2D10A98ADEB0000CD
:105A800000F1200B600702D524F4803401E04FF0D0
:105A90000109D94502DDA9EB0B0000E0002000EB75
:105AA0000B0141440890AAEB010AE00306D4DDE9AA
:105AB0000F232146504600F063F806444FF00009DA
:105AC00008E009A911F80900DDE90F12904709F172
:105AD0000109761CC145F4DBE0030CD5DDE90F2399
