:020000040800F2
:1000000040080020C10100080B1D00082D1C00083D
:10001000091D000809020008512400080000000022
:100020000000000000000000000000002F1D00087C
:10003000BD020008000000002D1D0008311D000851
:10004000DB010008DB010008DB010008DB01000820
:10005000DB010008DB010008DB010008DB01000810
:10006000DB010008DB010008DB010008DB01000800
:100070000D020008DB010008DB010008DB010008BD
:10008000DB010008DB010008DB010008DB010008E0
:10009000DB010008DB010008DB010008DB010008D0
:1000A000DB010008311E0008DB010008DB0100084D
:1000B000DB010008DB010008DB010008DB010008B0
:1000C000DB010008DB010008DB010008DB010008A0
:1000D000DB010008DB010008DB0100083124000817
:1000E000DB010008DB010008DB010008DB01000880
:1000F000DB010008DB010008DB010008DB01000870
:10010000DB010008DB010008DB010008DB0100085F
:10011000DB010008DB010008DB010008DB0100084F
:10012000DB010008DB010008DB010008DB0100083F
:10013000DB010008DB010008DB010008DB0100082F
:10014000DB010008DB010008DB010008DB0100081F
:10015000DB010008DB010008DB010008DB0100080F
:10016000DB010008DB010008DB010008DB010008FF
:10017000DB010008DB010008DB01000800000000D3
:10018000DB010008DB010008DB010008DB010008DF
:10019000DB010008DB010008DB010008DB010008CF
:1001A000DB010008DB010008DB010008DFF80CD0F0
:1001B00000F018F800480047D1250008400800204A
:1001C0000648804706480047FEE7FEE7FEE7FEE7F1
:1001D000FEE7FEE7FEE7FEE7FEE7FEE7DD1D0008BF
:1001E000AD010008064C074D06E0E06840F0010351
:1001F00094E8070098471034AC42F6D3FFF7DAFFD3
:10020000582A0008782A0008FEE70000014800F09C
:1002100003BA0000C000002001681823CAB2103AD7
:10022000B2FBF3F2054B6FF30901032A9B5CC36534
:1002300000D9091D8165084670470000382A00086A
:1002400010B5014600208B698A6A4FF0C07453B123
:10025000B3F5005F15D072B1012A0CD0022A0AD082
:10026000032A09D104E01AB1012A06D0022A03D1D7
:10027000C96AC90100D5012010BDC96AA142FAD0DE
:1002800010BD002AF7D0012AF2D0022AF3D0032AA7
:10029000F3D010BD30B50468256825F480252560AD
:1002A000046863608368402B036803D0996000682A
:1002B000C26030BD9A600068C16030BD7047000008
:1002C000002229B1012922D0022923D04FF4407203
:1002D0000B2800D9001D11490B6823F440730B60F3
:1002E0000B6813430B600A6822F0F8020A600A6880
:1002F000F82393FAA3F3B3FA83F3984040F0020093
:1003000002430A60086840F48030086070474FF488
:100310008072DDE74FF40072DAE70000103C024023
:100320001348016889050FD5016821F40071016047
:10033000016841F400610160016821F4006101601D
:10034000016841F400710160016849050FD5016839
:1003500021F480610160016841F48051016001680D
:1003600021F480510160016841F4806101607047AF
:10037000003C02400E4A136823F4407313600329C3
:100380000DD0012911680FD041F4004111601168AE
:100390004FF4803343EA0020014311607047116835
:1003A00048F204031943F1E741F00401EEE70000CD
:1003B000103C0240064A136823F44073136013682C
:1003C0001360136843F0010313600170704700006D
:1003D000103C0240084910B50C6824F440740C60CD
:1003E0000C6844F440740C600C6844F001040C6028
:1003F0000260436010BD0000103C0240074A1368D1
:1004000023F440731360136843F48073136013681C
:1004100043F001031360018070470000103C02406C
:10042000074A136823F440731360136843F400739E
:100430001360136843F0010313600160704700000C
:10044000103C02401C490868C2061C4805D5C26918
:1004500042F01002C26110220A600A68920605D5B5
:10046000C26942F00802C26120220A600A6852068C
:1004700005D5C26942F00402C26140220A600A68DE
:10048000120605D5C26942F00202C26180220A60EA
:100490000A68D20506D5C26942F00102C2614FF472
:1004A00080720A600A68920705D5C26942F020028C
:1004B000C2610220086070470C3C0240200400200A
:1004C00070B5114904460020C86100F061FC054682
:1004D0000E4E09E0601C07D024B100F059FC401B0F
:1004E000A04201D9032070BD3068C003F2D4306847
:1004F000C00701D001203060306810F4F970F2D0EC
:10050000FFF7A0FF012070BD200400200C3C02403A
:100510002DE9F0410446876D00F03AFC054694F859
:1005200035000026022806D08020606584F83460FB
:100530000120BDE8F0812068016821F0160101600A
:100540002068416921F080014161206C08B9A06CEC
:1005500020B12068016821F008010160206801686D
:1005600021F0010101600BE000F012FC401B0528A6
:1005700006D92020606504F8346F03206070D8E746
:1005800020680068C007EFD194F85C103F208840D5
:10059000B86004F8346F012060700020C9E790F85B
:1005A0003510022903D080214165012070470521C3
:1005B00080F835100068016821F001010160002019
:1005C000704770B5040025D094F83500022820D07B
:1005D0002068016821F001010160206800250560A4
:1005E00020684560206885602068C56020680561D6
:1005F0002168212048612046FFF70EFE94F85C2018
:100600003F2191408160656584F8355084F834500D
:10061000002070BD012070BD2DE9F84304464FF065
:100620000008CDF8008064484FF41651A56D0068AD
:10063000B0FBF1F72E6894F85C00082202FA00F192
:10064000314210D02068016849070CD5016821F0BB
:100650000401016094F85C0002FA00F1A960606D89
:1006600040F00100606594F85C10544888403042C6
:1006700008D021684969090604D5A860606D40F07A
:10068000020060654D4894F85C10C01C8840304200
:1006900008D021680968890704D5A860606D40F01A
:1006A0000400606594F85C1010208840304218D037
:1006B00021680968090714D5A86020680168490302
:1006C00004D50068000308D5A16C07E00168C905DE
:1006D00003D4016821F008010160216C09B12046B2
:1006E000884794F85C102020884030424FF0010683
:1006F00031D021680968C9062DD5A86094F8350065
:1007000005282068016806D0490347D50068000322
:100710001DD4616C1CE021F0160101602068416964
:1007200021F080014161206C08B9A06C20B12068E3
:10073000016821F00801016094F85C103F208840B6
:10074000A86084F8348084F83560216D1FE0E16B87
:1007500009B120468847606D00282BD0606DC00726
:1007600014D0052084F835002068016821F00101CB
:1007700001600098401C0090B84203D820680068CF
:10078000C007F6D184F8348084F83560E16C002924
:1007900010D001B02046BDE8F04308470168C90504
:1007A000D5D4016821F01001016084F8348084F808
:1007B0003560CCE7BDE8F8834000002001008000F0
:1007C0002DE9F041044600F0E3FA05465CB100264D
:1007D00084F83460022084F835002068016821F034
:1007E000010101600DE00120BDE8F08100F0D0FAC8
:1007F000401B052805D920206065032084F83500BA
:10080000F2E720680068C007F0D121680A68204834
:100810000240D4E901031843D4E903352B431843BC
:1008200063691843A3691843E3691843236A1843AB
:100830001043626A042A03D1D4E90B231A431043FC
:10084000086020684069656A20F0070128460D436A
:10085000012704280CD1A06A0543E06A40B1204674
:10086000FFF7EEFC20B14020606584F83570BAE7F0
:10087000206845612046FFF7CFFC94F85C203F21BB
:1008800091408160666584F835700020ACE7000017
:100890003F8010F02DE9F0410446866D90F8340059
:1008A000002501280DD0012084F8340094F835701B
:1008B0000020012F07D084F8340002252846BDE827
:1008C000F0810220FBE7022784F83570606520463E
:1008D000FFF7E0FC94F85C103F208840B06020688F
:1008E000016841F0160101602068416941F0800112
:1008F0004161206C20B12068016841F0080101606D
:100900002068016841F001010160D7E72DE9F04757
:10091000044623480E46017E01290AD00121804663
:1009200001764CF250394846FFF7CAFD020003D069
:1009300030E00220BDE8F0874FF0FF3030602068E3
:10094000184F012801D0A5681DE0207C6168FFF7E1
:1009500011FD4846FFF7B4FD0246386848F204012D
:100960008843386014E0217C2846FFF7A9FC4846FC
:10097000FFF7A6FD0200386820F0FA00386001D0C9
:10098000356005E06D1CD4E902100844A842EAD89D
:10099000FFF7C6FC002188F818101046CAE70000CF
:1009A00020040020103C02400348016841F000414F
:1009B0000160002070470000103C02402DE9F04724
:1009C0001B4E05461446307E1F468946012808D036
:1009D000012030764CF250384046FFF771FD18B1D7
:1009E00014E00220BDE8F0879DB1012D16D0022D44
:1009F00019D022463B464846FFF7ECFC4046FFF73D
:100A00005FFD0C490A6822F001020A60002131767C
:100A1000E8E7E1B24846FFF7CDFCEFE7A1B2484670
:100A2000FFF7ECFCEAE721464846FFF7F9FCE5E76B
:100A300020040020103C024006480068002807DA25
:100A4000044805490C3801600449016000207047E2
:100A500001207047103C024023016745AB89EFCD70
:100A60002DE9F04FDFF808B100224FF0010A4FF0F6
:100A70000F080AFA02F501EA0503AB4272D10668D3
:100A800057000324BC40A6430660D60800EB860648
:100A9000D6F820C057074FEAD76908FA09F72CEAB9
:100AA000070CC6F820C08668A64386604668AE4339
:100AB0004660C568A543C56022F003055D44D5F8CE
:100AC00008489607370F08FA07F606EA040C294C7F
:100AD000A04201D100242DE0274CA04201D10124E5
:100AE00028E0264CA04201D1022423E0244CA0425D
:100AF00001D103241EE0234CA04201D1042419E0BB
:100B0000214CA04201D1052414E0204CA04201D187
:100B100006240FE01E4CA04201D107240AE01D4C20
:100B2000A04201D1082405E01B4CA04201D10924B8
:100B300000E00A24BC40644514D1D5F80848B44309
:100B4000C5F80848154C25689D432560241D256877
:100B50009D432560241D25689D432560251D2C6827
:100B60009C432C60521C102A83D3BDE8F08F0000F8
:100B70000030014000000240000402400008024032
:100B8000000C024000100240001402400018024015
:100B9000001C02400020024000240240003C0140B2
:100BA0002DE9F84FDFF8A091002209F1040A0AF1BB
:100BB000040B4FF00F080BF1040E01260B68964052
:100BC0003340B34271D14C68022C01D0122C11D1A8
:100BD000D40800EB84073D6A5407E40E08FA04FCCD
:100BE00025EA0C05D1F810C00CFA04FC4CEA050CFF
:100BF000C7F820C007685400032591F804C0A54039
:100C00000CF0030CAF430CFA04FC4CEA070CC0F8E0
:100C100000C04F68012F05D0022F03D0112F01D043
:100C2000122F11D18768D1F80CC0AF430CFA04FC25
:100C30004CEA070CC0F808C04768B7430E79C6F302
:100C4000001696403E434660C668AE438D68A54098
:100C50003543C5604C68E4006FD53C4C256845F4CD
:100C600080452560246822F0030504F48044009444
:100C7000374C2E19D6F808789407250F08FA05F492
:100C8000A743344CA04201D100242EE0324CA042B4
:100C900001D1012429E0314CA04201D1022424E0F9
:100CA0002F4CA04202D103241FE046E02D4CA0426D
:100CB00001D1042419E02C4CA04201D1052414E0F8
:100CC0002A4CA04201D106240FE0294CA04201D1B8
:100CD00007240AE0274CA04201D1082405E0264C55
:100CE000A04201D1092400E00A24AC403C43C6F8EC
:100CF0000848D9F800404D464E689C43F60300D59D
:100D00001C432C60DAF8004055464E689C43B603FD
:100D100000D51C432C60DBF800405D464E689C43C8
:100D2000F60200D51C432C60DEF8004075464E6884
:100D30009C43B60200D51C432C60521C102AFFF4C1
:100D40003CAFBDE8F88F0000003C01404438024051
:100D50000030014000000240000402400008024050
:100D6000000C024000100240001402400018024033
:100D7000001C0240002002400024024042694A4018
:100D8000426170470AB1816170470904FBE70000C6
:100D900001480068704700003C00002002480168DC
:100DA000491C0160704700003C0000200B4810B552
:100DB000016841F400710160016841F480610160E3
:100DC000016841F480710160032000F07FF8002089
:100DD00000F006F800F018F8002010BD003C0240BA
:100DE00010B5044607484FF47A710068B0FBF1F083
:100DF00000F03FFB00222146501E00F047F8002083
:100E000010BD00004000002010B5032000F05EF887
:100E1000002211466FF00B0000F038F80022114656
:100E20006FF00A0000F032F8002211466FF009005E
:100E300000F02CF800221146501F00F027F8002285
:100E40001146101F00F022F800221146901E00F0FB
:100E50001DF80022BDE810401146501E00F016B8E3
:100E600000F01F02012191404009800000F1E020C4
:100E7000C0F88011704700F01F0201219140400925
:100E8000800000F1E020C0F800117047F0B40E4B74
:100E90001B68C3F30223C3F10704042C00D9042404
:100EA0001D1D072D01D2002300E0DB1E012606FADE
:100EB00004F56D1E0D409D409E40761E164045EA8D
:100EC0000601F0BC00F022BF0CED00E0064A00F085
:100ED000070110684FF6FF03184040EA012003495C
:100EE00008431060704700000CED00E00000FA05B8
:100EF0002DE9F047DFF85C9104460E46D9F8000072
:100F000000F00F01F0B28046B14207D289F800002C
:100F1000D9F8000000F00F00B04271D120784E4F98
:100F2000800705D53868A16820F0F00008433860D4
:100F30002078C00756D048496068083901281AD07F
:100F400002281BD0032819D009688907002957DA1D
:100F5000396821F0030101433960FFF719FF0546A5
:100F6000606841F28831012811D002281CD0032882
:100F70008A4625D032E009688903E7E709688901D4
:100F8000E4E7FFF705FF411B514501D923E08A46FD
:100F90003868C0F381000128F3D123E0FFF7F8FEA1
:100FA000411B514501D916E08A463868C0F38100DB
:100FB0000228F3D116E0FFF7EBFE411B51450AD89A
:100FC0003868C0F381000328F5D10BE0FFF7E0FE9D
:100FD000411B514502D90320BDE8F087386810F065
:100FE0000C0FF3D1D9F80010484601F00F01B142BF
:100FF00008D980F80080006800F00F00B04201D0EE
:101000000120E9E72078400705D53868E16820F439
:10101000E050084338602078000706D53868216919
:1010200020F4604040EAC100386000F051F83968AF
:10103000F02292FAA2F201F0F001B2FA82F2D1406B
:10104000064A515CC840064908600020FFF7C8FE08
:101050000020C1E7003C024008380240402A000856
:101060004000002001480068704700004000002058
:1010700008480949006809684FF4E05292FAA2F260
:1010800001F4E051B2FA82F2D140044A515CC84006
:10109000704700004000002008380240502A000835
:1010A00008480949006809684FF4604292FAA2F2C0
:1010B00001F46041B2FA82F2D140044A515CC84066
:1010C000704700004000002008380240502A000805
:1010D00030B51948006810F00C01184812D0184CAF
:1010E00004290ED008290DD1134A121F1168136864
:1010F00001F03F015D0247F6C07304D5B4FBF1F087
:1011000003E0204630BDB0FBF1F01168194093FABE
:10111000A3F3B3FA83F3D940484311684FF4403244
:1011200092FAA2F201F44031B2FA82F2D140491CA3
:101130004900B0FBF1F030BD083802400024F40053
:1011400040787D012DE9F84F04460078DFF8F4A2DD
:10115000BD4DC00748D0DAF800105046C1F38101F8
:10116000012908D00068C0F3810002280AD1281D97
:101170000068400206D52868800335D560680028DD
:1011800070D031E06068B0F5803F10D0B0F5A02F8E
:10119000286810D020F480302860286820F480204F
:1011A00028606068A0B1FFF7F3FD06460CE02868F0
:1011B00040F48030F4E740F480202860F7E7FFF740
:1011C000E7FD801B642873D828688003F7D50BE0FF
:1011D000FFF7DEFD064604E0FFF7DAFD801B64281A
:1011E000F1D828688003F7D42078DFF86082800780
:1011F0004FF0010B4FF0000943D5DAF800105046CC
:1012000011F00C0F4FF0F80709D00068C0F381000F
:1012100002280BD18B48001F0068400206D42868C2
:10122000800713D5E06801281CD10FE0E068D0B139
:10123000C8F800B0FFF7ACFD064604E0FFF7A8FDD4
:10124000801B0228BFD828688007F7D5286897FA3E
:10125000A7F22169B2FA82F220F0F8009140084327
:1012600028600EE0EBE0C8F80090FFF791FD06461D
:1012700004E0FFF78DFD801B022819D8286880073D
:10128000F7D42078000722D56E4F714861696C371A
:1012900079B1C0F800B0FFF77BFD064604E0FFF728
:1012A00077FD801B022803D838688007F7D50EE049
:1012B00079E0C0F80090FFF76BFD064604E0FFF709
:1012C00067FD801B02286ED838688007F7D4207825
:1012D000400750D55B483830016841F080510160CB
:1012E00000685C4F00F080500090386840F48070D7
:1012F0003860FFF74DFD064604E0FFF749FD801B0F
:10130000022850D83868C005F7D54E4FA068683716
:1013100001280FD00528386810D020F0010038606F
:10132000386820F004003860A068B0B1FFF730FDE5
:1013300006460EE0386840F00100F4E740F0040093
:101340003860F7E7FFF724FD811B41F288308142C6
:101350006DD838688007F5D50DE0FFF719FD064612
:1013600006E0FFF715FD811B41F2883081425ED80F
:1013700038688007F5D4A069F0B3DAF80010C1F33B
:10138000810102295BD00228484605D0C8F86000D8
:10139000FFF7FEFC04464DE04746C8F86000FFF743
:1013A000F7FC064605E042E0FFF7F2FC801B02284E
:1013B0003DD828688001F7D4D4E90701084347F6EF
:1013C000C07292FAA2F2616AB2FA82F29140A26A03
:1013D0004FF0FF3303EB52024FF4403393FAA3F381
:1013E000B3FA83F39A4011434FF0706292FAA2F27B
:1013F0000843B2FA82F200E01FE0E16A914008433C
:101400001049091F0860C7F860B0FFF7C1FC044627
:1014100004E0FFF7BDFC001B022808D82868800103
:10142000F7D50AE0FFF7B4FC001B022802D903201D
:10143000BDE8F88F28688001F4D40020F8E7012087
:10144000F6E700000838024000380240000047423A
:10145000800E4742007000404FF0E02104280869E8
:1014600003D020F004000861704740F00400FAE760
:10147000704710B5401EB0F1807F01D3012010BD30
:101480004FF0E02460610F21601700F03FFC002066
:10149000A06107202061002010BD10B5FFF7E8FF14
:1014A00010BD7047704730B590F83820012A20D021
:1014B000012380F83830022280F83920026854680D
:1014C00024F070045460026854680D682C43546022
:1014D0000268946824F08004946002689468496803
:1014E0000C43946080F83930002180F838100846A9
:1014F00030BD022030BD10B5040003D094F839008F
:1015000010B107E0012010BD002084F8380020460B
:1015100000F00CF8022084F83900211D206800F04A
:101520008DFC012084F83900002010BD08B500684A
:101530000B49884212D10B48016841F0010101605A
:101540000068002200F00100009011461920FFF70A
:101550009DFCBDE808401920FFF78DBC08BD0000C8
:1015600000000140443802400168CA6842F00102AC
:10157000CA600068016841F0010101600020704705
:10158000022180F8391001680A6A41F211131A42E7
:1015900007D10A6A9B101A4203D10A6822F001029D
:1015A0000A60012180F839100020704770B50446A8
:1015B00090F83800012817D0012584F8385002200F
:1015C00084F839002068826822F0770222F47F4292
:1015D00082600868502836D00DDC202858D005DC01
:1015E00080B3102840D150E0022070BD302852D086
:1015F000402839D13EE060282DD070280BD0B0F5BE
:10160000805F03D0B0F5005F2ED110E020688168C4
:1016100021F0070109E0CB68D1E90121206800F041
:101620006DFC2068816841F0770181601CE0CB6827
:10163000D1E90121206800F061FC2068816841F453
:101640008041F2E71EE0CA684968206800F068FC43
:101650005021206806E0CA684968206800F071FCE3
:101660006021206800F054FC84F83950002084F890
:10167000380070BDCA684968206800F051FC4021FC
:101680002068EFE700212068ECE710212068E9E7F7
:1016900020212068E6E730212068E3E7704770B535
:1016A0000446006801694FF00005C943890715D455
:1016B000C168C943890711D4E91E01610120207660
:1016C000206880698007204602D0FFF7E7FF04E02A
:1016D00000F098F8204600F096F825762068016919
:1016E000C943490717D4C168C943490713D46FF0E8
:1016F00004010161022020762068806910F4407F97
:10170000204602D0FFF7CAFF04E000F07BF8204635
:1017100000F079F8257620680169C943090716D4D5
:10172000C168C943090712D46FF0080101610420A0
:1017300020762068C0698007204602D0FFF7AEFF00
:1017400004E000F05FF8204600F05DF825762068A0
:101750000169C943C90617D4C168C943C90613D46E
:101760006FF010010161082020762068C06910F434
:10177000407F204602D0FFF791FF04E000F042F8DE
:10178000204600F040F8257620680169C943C90762
:1017900008D1C168C943C90704D1891E0161204627
:1017A00000F032F820680169C943090609D4C1680C
:1017B000C943090605D46FF0800101612046FFF797
:1017C00070FE20680169C943490609D4C168C9434C
:1017D000490605D46FF040010161204600F02EF863
:1017E00020680169C94389060BD4C168C9438906C9
:1017F00007D46FF0200101612046BDE87040FFF77B
:1018000051BE70BD704770470B4A106A401C2121C1
:1018100090FBF1F301FB1301106211B9916A491CAD
:101820009162000702D1506A401C5062D0680028C3
:1018300001D001201061704704000020704710B5EE
:1018400004000ED0242084F83900204600F0C6F8A9
:101850000020E06384F8390084F83A0084F8380006
:1018600010BD012010BD704770B5026804461068B5
:10187000D168536910F00F0F51D003F0010501F446
:10188000907635435DD0C20705D0CA0503D5E26B1B
:1018900042F00102E263420705D5DA0703D0E26BAA
:1018A00042F00202E263820705D5DA0703D0E26B59
:1018B00042F00402E263020705D5DA0703D0E26BC7
:1018C00042F00802E263E26B002A34D0800604D5BD
:1018D000880602D5204600F0ADFB20684069E16B28
:1018E000C0F3801001F008010143204624D000F02D
:1018F0008AFB2068416949061AD5416921F04001F7
:101900004161606BA0B11B490165606BFEF747FE4A
:10191000002810D0606B016DBDE870400847830659
:101920000FD58B060DD52046BDE8704000F082BB78
:101930002046FFF798FF70BDFFF795FF0020E0639A
:1019400070BD030606D50B0604D52046BDE87040E1
:1019500000F00CBD4006F3D54806F1D5D16820460D
:1019600021F04001D160202184F8391000F05DF9A8
:1019700070BD0000671F000870B5040004D094F823
:101980003900002510B106E0012070BD84F8385000
:10199000204600F043F8242084F839002068C1680C
:1019A00021F40051C160204600F08AFB20680169E3
:1019B00021F4904101612068416921F02A014161CF
:1019C0002068C16841F40051C160E563202084F8BB
:1019D000390084F83A00002070BD000010B50446BC
:1019E00000680B49884211D10A48016821F480211E
:1019F00001604FF440710848FFF732F8606BFEF762
:101A0000E0FDBDE810402720FFF72ABA10BD000016
:101A10000048004040380240000C024070B50646C5
:101A20000068204986B088423AD11F4800250168E5
:101A300041F4802101600068694600F4802005902F
:101A40004FF440700090022001900120029003208A
:101A50000390072004901548FFF7A2F8154C14488E
:101A600020604FF00060C4E901054014C4E9035050
:101A70006561C001A561C4E9075020466562FEF7B3
:101A80009FFE18B19D210CA000F0E3FC74630022BE
:101A900011462720A663FFF7F9F92720FFF7EBF996
:101AA00006B070BD0048004040380240000C0240C3
:101AB00028600240C00000202E2E2F5372632F7327
:101AC000746D3332663478785F68616C5F6D737003
:101AD0002E63000037B5044690F83A0082B01346F2
:101AE00020283AD1039AAAB3A3B394F83800012866
:101AF00033D0012084F83800A262A3850025E56375
:101B0000222084F83A00616B1548C863616B154860
:101B10000864616B1448C864606B05652168606B7C
:101B2000091DFEF7B7FE206801684168009184F83E
:101B30003850C16841F48071C1602068416941F04A
:101B4000010141612068416941F04001416100208B
:101B500005B030BDFFE70120FAE70220F8E70000FA
:101B6000C11F0008FD1F0008771F0008704770475D
:101B70002DE9F843044690F839001E4617460D46F5
:101B8000202850D1A5B19FB194F8380001284AD03F
:101B9000012084F838004FF00008C4F83C80212070
:101BA00084F83900FFF7F4F8A7848146E78426E03B
:101BB0000120BDE8F883E08C401EE084A0684B461D
:101BC000B0F5805F4FF000024FF080012046009694
:101BD00003D000F0FCFBE8B90DE000F0F8FBC8B959
:101BE00028882168C0F308004860206908B16D1C8E
:101BF00005E0AD1C03E0216815F8010B4860E08C9E
:101C00000028D8D14B46002240212046009600F003
:101C1000DEFB08B10320CCE7202084F8390084F8EB
:101C200038800020C5E70220C3E77047FEE70000C8
:101C300030B51C4887B00024016841F008010160FC
:101C4000016801F008010591016841F0400101605F
:101C5000016801F040010591016841F01001016047
:101C60000068114D00F0100005900122FC2128466B
:101C7000FFF788F8FC2000901120CDE901046946A7
:101C800028460394FEF78CFF681500900120019010
:101C900002900320039069460448FEF781FF07B0D5
:101CA00030BD0000303802400018024000100240F1
:101CB00010B5144886B01249016060210024C0E9C3
:101CC000011447F23051C1604FF48071C0E904142F
:101CD000FFF711FC00B1FEE74FF480500090694619
:101CE0000848FFF763FC00B1FEE7049404A9054827
:101CF0000594FFF7D8FB002800D0FEE706B010BD22
:101D00000000014044000020FEE770470907090E6B
:101D1000002806DA00F00F0000F1E02080F8141D22
:101D2000704700F1E02080F800147047704770475A
:101D300010B5FFF733F8BDE81040FFF7AEBB000069
:101D400030B5244893B00025016841F0805101600E
:101D5000006800F0805011901F48016821F4404154
:101D600041F4804101600068022400F44040119079
:101D7000012003901020009406940490CDE90750B0
:101D8000C020CDE9090404200B906846FFF7DAF97A
:101D900000B1FEE70CA90F2081E831004FF4A050FC
:101DA0000F90109003210CA8FFF7A2F800B1FEE7F6
:101DB000FFF758F94FF47A71B0FBF1F0FFF759FBD8
:101DC0000420FFF749FB00221146501EFFF75EF882
:101DD00013B030BD40380240007000401048016828
:101DE00041F4700101600F48016841F00101016098
:101DF0000C4A00210832116002680B4B1A40026045
:101E0000031D0A4A1A60026822F480220260054813
:101E10000C300160024958068039086070470000A4
:101E200088ED00E000380240FFFFF6FE103000248D
:101E30000148FFF734BC000044000020F0B5026800
:101E4000234D244E244FDFF894C0254B4FF0804E95
:101E5000A84209D0704507D0B04205D0B84203D09F
:101E6000604501D0984203D122F070044A682243B1
:101E7000A8421BD0704519D0B04217D0B84215D037
:101E8000604513D0984211D0164CA0420ED0164C8B
:101E9000A0420BD0154CA04208D0154CA04205D052
:101EA000144CA04202D0144CA04203D122F440743E
:101EB000CA68224302608A68C2620A688262A842D3
:101EC00001D0984201D10969016301214161F0BD4E
:101ED000000001400004004000080040000C0040E9
:101EE000000401400040014000440140004801401E
:101EF00000180040001C00400020004010B584681D
:101F000042EA032224F47F440A432243826010BD44
:101F1000826822F070020A4342F007018160704734
:101F200010B5046A036A23F001030362836923F096
:101F3000F00343EA021324F00A020A4383610262B7
:101F400010BD10B5036A23F0100303628469036AAD
:101F500024F4704444EA023223F0A00343EA01115E
:101F60008261016210BD10B5806B0021C185C18402
:101F7000FFF779FC10BD70B5846B2068406994F858
:101F80003910C0F3C0100025212904D118B1E5840F
:101F9000204600F046F82068406994F83A10C0F3F3
:101FA0008010222904D118B1E585204600F02BF8D5
:101FB000E06B40F01000E0632046FFF754FC70BD7A
:101FC00010B50146806B09680968C90513D4002162
:101FD000C1850168CA6822F48072CA6001684A69D2
:101FE00022F001024A6101684A6922F040024A6116
:101FF000202180F83A10FFF7B9FD10BD10B5806BB5
:10200000FFF7B5FD10BD0168CA6822F49072CA607E
:1020100001684A6922F001024A61202180F83A10E1
:1020200070470168CA6822F0C002CA60202180F8A7
:102030003910704710B590F83A10222901D00220CB
:1020400010BD8168B1F5805F11D001690029016878
:102050001FD0496801F07F03816A4A1C82620B70BD
:10206000C18D491E0904090CC18518D026E00269FA
:10207000816A002A0268526805D0D2B20A80816A59
:10208000491C8162ECE7C2F308020A80816A891C5C
:10209000F7E74A68816A4B1C83620A70E0E70168CF
:1020A000CA6822F49072CA6001684A6922F001028B
:1020B0004A61202180F83A10FFF758FD002010BD3A
:1020C0002DE9F04104460068016921F44052E168BD
:1020D000114301612068C16849F20C629143236990
:1020E000A268E5691A4363692B431A430A43C26035
:1020F00020684169A26921F440710A434261E069A4
:102100006425B0F5004F974A974920684FF0320890
:102110003FD0884201D090427CD1FEF7C1FF00EB56
:10212000C00101EB001061688900B0FBF1F6FEF719
:10213000B7FF00EBC00101EB001061688900B0FB44
:10214000F1F0B0FBF5F06FF01801484306EB8001A9
:1021500008EB0110B0FBF5F000F0F006FEF7A0FF71
:1021600000EBC00101EB001061688900B0FBF1F0E9
:10217000B0FBF5F006EB0016FEF792FF00EBC00196
:1021800001EB001061688900B0FBF1F7FEF788FFF2
:10219000D2E0884201D090423DD1FEF781FF00EBB2
:1021A000C00101EB001061684900B0FBF1F0B0FB29
:1021B000F5F00601FEF774FF00EBC00101EB001023
:1021C00061684900B0FBF1F7FEF76AFF00EBC00160
:1021D00001EB001061684900B0FBF1F0B0FBF5F0D5
:1021E0006FF01801484307EB800108EBC100B0FB1A
:1021F000F5F000F0F80006EB4006FEF751FF00EBAB
:10220000C00101EB001061684900B0FBF1F7FEF777
:1022100047FF3CE055E0FEF72BFF00EBC00101EB70
:10222000001061684900B0FBF1F0B0FBF5F0060169
:10223000FEF71EFF00EBC00101EB001061684900D2
:10224000B0FBF1F7FEF714FF00EBC00101EB00104B
:1022500061684900B0FBF1F0B0FBF5F06FF01801D8
:10226000484307EB800108EBC100B0FBF5F000F03C
:10227000F80006EB4006FEF7FBFE00EBC00101EBA9
:10228000001061684900B0FBF1F7FEF7F1FE00EBCA
:10229000C00101EB001061684900B0FBF1F0B0FB38
:1022A000F5F06FF01801484307EB800108EBC1001F
:1022B000B0FBF5F000F00700216830448860BDE80D
:1022C000F081FEF7D5FE00EBC00101EB0010616864
:1022D0008900B0FBF1F6FEF7CBFE00EBC00101EB8D
:1022E000001061688900B0FBF1F0B0FBF5F06FF011
:1022F0001801484306EB800108EB0110B0FBF5F034
:1023000000F0F006FEF7B4FE00EBC00101EB001098
:1023100061688900B0FBF1F0B0FBF5F006EB001648
:10232000FEF7A6FE00EBC00101EB0010616889001A
:10233000B0FBF1F7FEF79CFE00EBC00101EB0010D3
:1023400061688900B0FBF1F0B0FBF5F06FF01801A7
:10235000484307EB800108EB0110B0FBF5F000F0FB
:102360000F00A9E7001401400010014090F8391057
:10237000212901D0022070478168B1F5805F016A90
:102380000BD04A1C0262026809785160C18C491E58
:102390000904090CC1840ED017E009880268C1F352
:1023A0000801516001690029016A02D0491C0162DB
:1023B000ECE7891CFBE70168CA6822F08002CA606A
:1023C0000068C16841F04001C160002070472DE9FC
:1023D000F0411E46174688460446069D1CE0681CD0
:1023E0001AD025B1FEF7D4FC801BA84214D920686E
:1023F000C16821F4D071C1602068416921F00101F8
:102400004161202084F8390084F83A00002084F8E3
:1024100038000320BDE8F0812068016838EA010037
:1024200004D00020B842DAD00020F3E70120F9E719
:10243000064810B500680068C00601D500F0B2F982
:10244000BDE810400148FFF70FBA000080000020EF
:10245000FEE7FEE702E008C8121F08C1002AFAD111
:1024600070477047002001E001C1121F002AFBD114
:10247000704710B514460B4603E013F8011B00F03B
:1024800003F8641EF9D210BD4140034AC9B232F8C4
:10249000111081EA102070473828000870B5144DDB
:1024A000012029688843134901EB00242088A0F506
:1024B000AA41AA391BD1A279E11D0020FFF7D9FF5B
:1024C000A279E11D515A814211D1E07901280CD045
:1024D00006280CD100F032F9204600F00FF8BDE8D4
:1024E000704008210448FEF749BC0020E86070BD38
:1024F0000400002020010020001802402DE9F047D0
:1025000086B000250446DFF8B0800595FEF794FA02
:102510002A4F6089012678617968884240D12189F3
:10252000DFF89C904FF0020AB960C8B9C9F80060A2
:102530007D60FEF781FAC7F818800420CDE90260BB
:1025400005A9CDF810A000956846FEF7DFF928B17F
:10255000FEF72AFADD211BA0FFF77BFFFEF724FA26
:10256000A07904F10C01401FC2B2B86900F03EF935
:10257000401C11D0B869A179401F0844B86178683F
:10258000401C7860B968884204DBFE60C9F80050DE
:10259000C7F828A0FE600AE0C7F818807D6006E052
:1025A000D7E90710411A052901D9F861F2E7FEF7CA
:1025B000FBF906B0BDE8F0870040000804000020E9
:1025C000000000202E2E5C626F6F742E63000000EE
:1025D000364E08B500247568FEF7E8FBFFF7B0FB40
:1025E000FFF726FB32480027016841F40011016023
:1025F00000683A4600F40010009039460C20FEF7BF
:1026000045FC0C20FEF737FC2B482A4901604FF4AB
:10261000E121C0E901170C21C760C0E9047187619D
:10262000C761FFF7A9F900B1FEE7FFF741FB2248B8
:102630003C38FEF799FF00F09DF84FF4007BDFF87F
:102640007C901F4FDFF87C80DFF87CA000F040F822
:1026500059461E48FEF792FBD8F8000030B1012819
:10266000F4D140215046FEF789FBEFE7D9F800008E
:10267000032812DD10483C38FEF782FF0E48403038
:10268000FDF746FF0C48FFF7DAF80C20FEF7E8FBF1
:10269000306880F30888A847D8E738680628D5DA74
:1026A0008442D3D004460421DCE700000040000847
:1026B0003038024000480040800000202C000020FC
:1026C00028000020000000200018024000100240F6
:1026D00005480169012906D1C168012903D10021FA
:1026E000016100F003B870470400002010B51148E4
:1026F0000F4C0121C16045F2AA512180D4F802108B
:102700000622491CC4F80210018921818088608159
:102710003820E0710520A071E11D0020FFF7A9FE1F
:1027200021460123BDE810400E220348FFF720BADE
:102730002003002004000020800000200B4A0A48EB
:102740000121D16045F2AA520280D0F802200B4646
:10275000521CC0F80220C171817104490A222C3137
:102760000348FFF705BA0000200300200400002002
:102770008000002008480068C16841F01001C16075
:10278000064807494FF48072007800F0010001EB21
:1027900000210148FFF79EB98000002004000020BE
:1027A0002001002010B50E4C606BFDF7B1FE20201B
:1027B00084F83A00616B012081F8350009494FF433
:1027C00080720868401C0860074900F0010001EBB6
:1027D00000212046FFF77EF9BDE81040FFF75EBEFE
:1027E0008000002004000020200100202DE9F0419D
:1027F00090460F4606460024FEF71EF916E0002319
:102800003A5D31461846FEF7D9F83078395D88428E
:1028100009D06D1CEDB2052D08D9FEF7C5F84FF0B3
:10282000FF30BDE8F0810025641C761C4445E6DBE2
:10283000FEF7BAF80020F4E70000C1C081C14001F2
:1028400001C3C003800241C201C6C006800741C760
:102850000005C1C581C4400401CCC00C800D41CD30
:10286000000FC1CF81CE400E000AC1CA81CB400B00
:1028700001C9C009800841C801D8C018801941D9D0
:10288000001BC1DB81DA401A001EC1DE81DF401F60
:1028900001DDC01D801C41DC0014C1D481D5401570
:1028A00001D7C017801641D601D2C012801341D380
:1028B0000011C1D181D0401001F0C030803141F110
:1028C0000033C1F381F240320036C1F681F7403760
:1028D00001F5C035803441F4003CC1FC81FD403D30
:1028E00001FFC03F803E41FE01FAC03A803B41FB00
:1028F0000039C1F981F840380028C1E881E9402950
:1029000001EBC02B802A41EA01EEC02E802F41EF5F
:10291000002DC1ED81EC402C01E4C024802541E56F
:102920000027C1E781E640260022C1E281E340237F
:1029300001E1C021802041E001A0C060806141A18F
:102940000063C1A381A240620066C1A681A740675F
:1029500001A5C065806441A4006CC1AC81AD406D2F
:1029600001AFC06F806E41AE01AAC06A806B41ABFF
:102970000069C1A981A840680078C1B881B94079CF
:1029800001BBC07B807A41BA01BEC07E807F41BF5F
:10299000007DC1BD81BC407C01B4C074807541B56F
:1029A0000077C1B781B640760072C1B281B340737F
:1029B00001B1C071807041B00050C190819140510F
:1029C0000193C053805241920196C056805741975F
:1029D0000055C19581944054019CC05C805D419D2F
:1029E000005FC19F819E405E005AC19A819B405BFF
:1029F0000199C059805841980188C048804941894F
:102A0000004BC18B818A404A004EC18E818F404F5E
:102A1000018DC04D804C418C0044C184818540456E
:102A20000187C047804641860182C042804341837E
:102A30000041C1818180404000061016000610163A
:102A4000000000000000000001020304060708095E
:102A50000000000001020304782A000800000020A2
:102A60004400000054240008BC2A00084400002050
:102A7000FC070000642400080000000000000000C3
:102A80000000000000000000000000000000000046
:102A90000000000000000000000000000000000036
:102AA0000000000000000000AA5500000000010125
:0C2AB000C1C00000000000000024F40081
:04000005080001AD41
:00000001FF
